{
	"data": {
		"bytecode": {
			"linkReferences": {},
			"object": "60c06040526000196000553480156200001757600080fd5b5060405162002750380380620027508339810160408190526200003a9162000076565b6001600160601b0319606092831b8116608052911b1660a052620000ad565b80516001600160a01b03811681146200007157600080fd5b919050565b6000806040838503121562000089578182fd5b620000948362000059565b9150620000a46020840162000059565b90509250929050565b60805160601c60a05160601c612647620001096000398061011252806104c752806105b2528061063f528061067f528061076a52806114a752806114ed5280611561525080610a425280610d4f528061192e52506126476000f3fe6080604052600436106101025760003560e01c8063ad62311c11610095578063db3e219811610064578063db3e219814610291578063df2ab5bb146102a4578063e0e189a0146102b7578063f28c0498146102ca578063f3995c67146102dd57610172565b8063ad62311c14610236578063c04b8d5914610256578063c2e3140a14610269578063c45a01551461027c57610172565b80634aa4a4fc116100d15780634aa4a4fc146101ce5780639b2c0a37146101f0578063a4a78f0c14610203578063ac9650d81461021657610172565b806312210e8a14610177578063414bf3891461017f5780634659a494146101a857806349404b7c146101bb57610172565b3661017257336001600160a01b037f00000000000000000000000000000000000000000000000000000000000000001614610170576040805162461bcd60e51b81526020600482015260096024820152684e6f7420574554483960b81b604482015290519081900360640190fd5b005b600080fd5b6101706102f0565b61019261018d3660046121b1565b610302565b60405161019f9190612532565b60405180910390f35b6101706101b6366004611f2f565b610429565b6101706101c93660046122b8565b6104c3565b3480156101da57600080fd5b506101e361063d565b60405161019f91906123a7565b6101706101fe3660046122e7565b610661565b610170610211366004611f2f565b61082d565b610229610224366004611f8f565b6108be565b60405161019f9190612429565b34801561024257600080fd5b50610170610251366004612021565b6109fe565b610192610264366004612106565b610baa565b610170610277366004611f2f565b610cbe565b34801561028857600080fd5b506101e3610d4d565b61019261029f3660046121b1565b610d71565b6101706102b2366004611e90565b610e98565b6101706102c5366004611ed1565b610f76565b6101926102d83660046121cd565b61109d565b6101706102eb366004611f2f565b611193565b4715610300576103003347611205565b565b60008160800135806103126112f4565b111561035b576040805162461bcd60e51b8152602060048201526013602482015272151c985b9cd858dd1a5bdb881d1bdbc81bdb19606a1b604482015290519081900360640190fd5b6103f460a08401356103736080860160608701611e51565b610384610100870160e08801611e51565b604080518082019091528061039c60208a018a611e51565b6103ac60608b0160408c01612295565b6103bc60408c0160208d01611e51565b6040516020016103ce9392919061235c565b6040516020818303038152906040528152602001336001600160a01b03168152506112f8565b91508260c001358210156104235760405162461bcd60e51b815260040161041a906124c8565b60405180910390fd5b50919050565b604080516323f2ebc360e21b815233600482015230602482015260448101879052606481018690526001608482015260ff851660a482015260c4810184905260e4810183905290516001600160a01b03881691638fcbaf0c9161010480830192600092919082900301818387803b1580156104a357600080fd5b505af11580156104b7573d6000803e3d6000fd5b50505050505050505050565b60007f00000000000000000000000000000000000000000000000000000000000000006001600160a01b03166370a08231306040518263ffffffff1660e01b815260040180826001600160a01b0316815260200191505060206040518083038186803b15801561053257600080fd5b505afa158015610546573d6000803e3d6000fd5b505050506040513d602081101561055c57600080fd5b50519050828110156105aa576040805162461bcd60e51b8152602060048201526012602482015271496e73756666696369656e7420574554483960701b604482015290519081900360640190fd5b8015610638577f00000000000000000000000000000000000000000000000000000000000000006001600160a01b0316632e1a7d4d826040518263ffffffff1660e01b815260040180828152602001915050600060405180830381600087803b15801561061657600080fd5b505af115801561062a573d6000803e3d6000fd5b505050506106388282611205565b505050565b7f000000000000000000000000000000000000000000000000000000000000000081565b600082118015610672575060648211155b61067b57600080fd5b60007f00000000000000000000000000000000000000000000000000000000000000006001600160a01b03166370a08231306040518263ffffffff1660e01b815260040180826001600160a01b0316815260200191505060206040518083038186803b1580156106ea57600080fd5b505afa1580156106fe573d6000803e3d6000fd5b505050506040513d602081101561071457600080fd5b5051905084811015610762576040805162461bcd60e51b8152602060048201526012602482015271496e73756666696369656e7420574554483960701b604482015290519081900360640190fd5b8015610826577f00000000000000000000000000000000000000000000000000000000000000006001600160a01b0316632e1a7d4d826040518263ffffffff1660e01b815260040180828152602001915050600060405180830381600087803b1580156107ce57600080fd5b505af11580156107e2573d6000803e3d6000fd5b5050505060006127106107fe858461144a90919063ffffffff16565b8161080557fe5b0490508015610818576108188382611205565b61082485828403611205565b505b5050505050565b60408051636eb1769f60e11b81523360048201523060248201529051600019916001600160a01b0389169163dd62ed3e91604480820192602092909190829003018186803b15801561087e57600080fd5b505afa158015610892573d6000803e3d6000fd5b505050506040513d60208110156108a857600080fd5b5051101561082457610824868686868686610429565b60608167ffffffffffffffff811180156108d757600080fd5b5060405190808252806020026020018201604052801561090b57816020015b60608152602001906001900390816108f65790505b50905060005b828110156109f7576000803086868581811061092957fe5b905060200281019061093b919061253b565b604051610949929190612397565b600060405180830381855af49150503d8060008114610984576040519150601f19603f3d011682016040523d82523d6000602084013e610989565b606091505b5091509150816109d5576044815110156109a257600080fd5b600481019050808060200190518101906109bc919061209c565b60405162461bcd60e51b815260040161041a9190612489565b808484815181106109e257fe5b60209081029190910101525050600101610911565b5092915050565b6000841380610a0d5750600083135b610a1657600080fd5b6000610a2482840184612205565b90506000806000610a388460000151611474565b92509250925060007f00000000000000000000000000000000000000000000000000000000000000006001600160a01b0316631698ee828585856040518463ffffffff1660e01b8152600401610a90939291906123bb565b60206040518083038186803b158015610aa857600080fd5b505afa158015610abc573d6000803e3d6000fd5b505050506040513d601f19601f82011682018060405250810190610ae09190611e74565b9050336001600160a01b03821614610af757600080fd5b60008060008b13610b1d57856001600160a01b0316856001600160a01b0316108a610b34565b846001600160a01b0316866001600160a01b0316108b5b915091508115610b5357610b4e86886020015133846114a5565b610b9d565b8651610b5e90611635565b15610b83578651610b6e90611641565b8752610b7d813360008a611658565b50610b9d565b80600081905550849550610b9d86886020015133846114a5565b5050505050505050505050565b6000816040015180610bba6112f4565b1115610c03576040805162461bcd60e51b8152602060048201526013602482015272151c985b9cd858dd1a5bdb881d1bdbc81bdb19606a1b604482015290519081900360640190fd5b335b6000610c148560000151611635565b9050610c60856060015182610c2d578660200151610c2f565b305b60006040518060400160405280610c498b600001516117d3565b8152602001876001600160a01b03168152506112f8565b60608601528015610c80578451309250610c7990611641565b8552610c8d565b8460600151935050610c93565b50610c05565b8360800151831015610cb75760405162461bcd60e51b815260040161041a906124c8565b5050919050565b60408051636eb1769f60e11b8152336004820152306024820152905186916001600160a01b0389169163dd62ed3e91604480820192602092909190829003018186803b158015610d0d57600080fd5b505afa158015610d21573d6000803e3d6000fd5b505050506040513d6020811015610d3757600080fd5b5051101561082457610824868686868686611193565b7f000000000000000000000000000000000000000000000000000000000000000081565b6000816080013580610d816112f4565b1115610dca576040805162461bcd60e51b8152602060048201526013602482015272151c985b9cd858dd1a5bdb881d1bdbc81bdb19606a1b604482015290519081900360640190fd5b610e6660a0840135610de26080860160608701611e51565b610df3610100870160e08801611e51565b6040518060400160405280886020016020810190610e119190611e51565b610e2160608b0160408c01612295565b610e2e60208c018c611e51565b604051602001610e409392919061235c565b6040516020818303038152906040528152602001336001600160a01b0316815250611658565b91508260c00135821115610e8c5760405162461bcd60e51b815260040161041a9061249c565b50600019600055919050565b6000836001600160a01b03166370a08231306040518263ffffffff1660e01b815260040180826001600160a01b0316815260200191505060206040518083038186803b158015610ee757600080fd5b505afa158015610efb573d6000803e3d6000fd5b505050506040513d6020811015610f1157600080fd5b5051905082811015610f5f576040805162461bcd60e51b815260206004820152601260248201527124b739bab33334b1b4b2b73a103a37b5b2b760711b604482015290519081900360640190fd5b8015610f7057610f708483836117e2565b50505050565b600082118015610f87575060648211155b610f9057600080fd5b6000856001600160a01b03166370a08231306040518263ffffffff1660e01b815260040180826001600160a01b0316815260200191505060206040518083038186803b158015610fdf57600080fd5b505afa158015610ff3573d6000803e3d6000fd5b505050506040513d602081101561100957600080fd5b5051905084811015611057576040805162461bcd60e51b815260206004820152601260248201527124b739bab33334b1b4b2b73a103a37b5b2b760711b604482015290519081900360640190fd5b801561082457600061271061106c838661144a565b8161107357fe5b0490508015611087576110878784836117e2565b61109487868385036117e2565b50505050505050565b60008160400135806110ad6112f4565b11156110f6576040805162461bcd60e51b8152602060048201526013602482015272151c985b9cd858dd1a5bdb881d1bdbc81bdb19606a1b604482015290519081900360640190fd5b611169606084013561110e6040860160208701611e51565b6040805180820190915260009080611126898061253b565b8080601f01602080910402602001604051908101604052809392919081815260200183838082843760009201919091525050509082525033602090910152611658565b5060005491508260800135821115610e8c5760405162461bcd60e51b815260040161041a9061249c565b6040805163d505accf60e01b8152336004820152306024820152604481018790526064810186905260ff8516608482015260a4810184905260c4810183905290516001600160a01b0388169163d505accf9160e480830192600092919082900301818387803b1580156104a357600080fd5b604080516000808252602082019092526001600160a01b0384169083906040518082805190602001908083835b602083106112515780518252601f199092019160209182019101611232565b6001836020036101000a03801982511681845116808217855250505050505090500191505060006040518083038185875af1925050503d80600081146112b3576040519150601f19603f3d011682016040523d82523d6000602084013e6112b8565b606091505b5050905080610638576040805162461bcd60e51b815260206004820152600360248201526253544560e81b604482015290519081900360640190fd5b4290565b60006001600160a01b03841661130c573093505b600080600061131e8560000151611474565b919450925090506001600160a01b0380831690841610600080611342868686611929565b6001600160a01b031663128acb088b8561135b8f6119d5565b6001600160a01b038e1615611370578d611396565b8761138f5773fffd8963efd1fc6a506488495d951d5263988d25611396565b6401000276a45b8d6040516020016113a791906124f5565b6040516020818303038152906040526040518663ffffffff1660e01b81526004016113d69594939291906123e3565b6040805180830381600087803b1580156113ef57600080fd5b505af1158015611403573d6000803e3d6000fd5b505050506040513d601f19601f820116820180604052508101906114279190611ffe565b91509150826114365781611438565b805b6000039b9a5050505050505050505050565b60008215806114655750508181028183828161146257fe5b04145b61146e57600080fd5b92915050565b6000808061148284826119eb565b925061148f846014611a9b565b905061149c8460176119eb565b91509193909250565b7f00000000000000000000000000000000000000000000000000000000000000006001600160a01b0316846001600160a01b03161480156114e65750804710155b15611608577f00000000000000000000000000000000000000000000000000000000000000006001600160a01b031663d0e30db0826040518263ffffffff1660e01b81526004016000604051808303818588803b15801561154657600080fd5b505af115801561155a573d6000803e3d6000fd5b50505050507f00000000000000000000000000000000000000000000000000000000000000006001600160a01b031663a9059cbb83836040518363ffffffff1660e01b815260040180836001600160a01b0316815260200182815260200192505050602060405180830381600087803b1580156115d657600080fd5b505af11580156115ea573d6000803e3d6000fd5b505050506040513d602081101561160057600080fd5b50610f709050565b6001600160a01b038316301415611629576116248483836117e2565b610f70565b610f7084848484611b42565b8051604211155b919050565b805160609061146e90839060179060161901611c92565b60006001600160a01b03841661166c573093505b600080600061167e8560000151611474565b919450925090506001600160a01b03808416908316106000806116a2858786611929565b6001600160a01b031663128acb088b856116bb8f6119d5565b6000036001600160a01b038e16156116d3578d6116f9565b876116f25773fffd8963efd1fc6a506488495d951d5263988d256116f9565b6401000276a45b8d60405160200161170a91906124f5565b6040516020818303038152906040526040518663ffffffff1660e01b81526004016117399594939291906123e3565b6040805180830381600087803b15801561175257600080fd5b505af1158015611766573d6000803e3d6000fd5b505050506040513d601f19601f8201168201806040525081019061178a9190611ffe565b9150915060008361179f5781836000036117a5565b82826000035b90985090506001600160a01b038a166117c4578b81146117c457600080fd5b50505050505050949350505050565b606061146e826000602b611c92565b604080516001600160a01b038481166024830152604480830185905283518084039091018152606490920183526020820180516001600160e01b031663a9059cbb60e01b1781529251825160009485949389169392918291908083835b6020831061185e5780518252601f19909201916020918201910161183f565b6001836020036101000a0380198251168184511680821785525050505050509050019150506000604051808303816000865af19150503d80600081146118c0576040519150601f19603f3d011682016040523d82523d6000602084013e6118c5565b606091505b50915091508180156118f35750805115806118f357508080602001905160208110156118f057600080fd5b50515b610826576040805162461bcd60e51b815260206004820152600260248201526114d560f21b604482015290519081900360640190fd5b6000807f00000000000000000000000000000000000000000000000000000000000000006001600160a01b0316631698ee828686866040518463ffffffff1660e01b815260040161197c939291906123bb565b60206040518083038186803b15801561199457600080fd5b505afa1580156119a8573d6000803e3d6000fd5b505050506040513d601f19601f820116820180604052508101906119cc9190611e74565b95945050505050565b6000600160ff1b82106119e757600080fd5b5090565b600081826014011015611a3a576040805162461bcd60e51b8152602060048201526012602482015271746f416464726573735f6f766572666c6f7760701b604482015290519081900360640190fd5b8160140183511015611a8b576040805162461bcd60e51b8152602060048201526015602482015274746f416464726573735f6f75744f66426f756e647360581b604482015290519081900360640190fd5b500160200151600160601b900490565b600081826003011015611ae9576040805162461bcd60e51b8152602060048201526011602482015270746f55696e7432345f6f766572666c6f7760781b604482015290519081900360640190fd5b8160030183511015611b39576040805162461bcd60e51b8152602060048201526014602482015273746f55696e7432345f6f75744f66426f756e647360601b604482015290519081900360640190fd5b50016003015190565b604080516001600160a01b0385811660248301528481166044830152606480830185905283518084039091018152608490920183526020820180516001600160e01b03166323b872dd60e01b178152925182516000948594938a169392918291908083835b60208310611bc65780518252601f199092019160209182019101611ba7565b6001836020036101000a0380198251168184511680821785525050505050509050019150506000604051808303816000865af19150503d8060008114611c28576040519150601f19603f3d011682016040523d82523d6000602084013e611c2d565b606091505b5091509150818015611c5b575080511580611c5b5750808060200190516020811015611c5857600080fd5b50515b610824576040805162461bcd60e51b815260206004820152600360248201526229aa2360e91b604482015290519081900360640190fd5b60608182601f011015611cdd576040805162461bcd60e51b815260206004820152600e60248201526d736c6963655f6f766572666c6f7760901b604482015290519081900360640190fd5b828284011015611d25576040805162461bcd60e51b815260206004820152600e60248201526d736c6963655f6f766572666c6f7760901b604482015290519081900360640190fd5b81830184511015611d71576040805162461bcd60e51b8152602060048201526011602482015270736c6963655f6f75744f66426f756e647360781b604482015290519081900360640190fd5b606082158015611d905760405191506000825260208201604052611dda565b6040519150601f8416801560200281840101858101878315602002848b0101015b81831015611dc9578051835260209283019201611db1565b5050858452601f01601f1916604052505b50949350505050565b803561163c816125f9565b600082601f830112611dfe578081fd5b8135611e11611e0c826125ab565b612587565b818152846020838601011115611e25578283fd5b816020850160208301379081016020019190915292915050565b60006101008284031215610423578081fd5b600060208284031215611e62578081fd5b8135611e6d816125f9565b9392505050565b600060208284031215611e85578081fd5b8151611e6d816125f9565b600080600060608486031215611ea4578182fd5b8335611eaf816125f9565b9250602084013591506040840135611ec6816125f9565b809150509250925092565b600080600080600060a08688031215611ee8578081fd5b8535611ef3816125f9565b9450602086013593506040860135611f0a816125f9565b9250606086013591506080860135611f21816125f9565b809150509295509295909350565b60008060008060008060c08789031215611f47578081fd5b8635611f52816125f9565b95506020870135945060408701359350606087013560ff81168114611f75578182fd5b9598949750929560808101359460a0909101359350915050565b60008060208385031215611fa1578182fd5b823567ffffffffffffffff80821115611fb8578384fd5b818501915085601f830112611fcb578384fd5b813581811115611fd9578485fd5b8660208083028501011115611fec578485fd5b60209290920196919550909350505050565b60008060408385031215612010578182fd5b505080516020909101519092909150565b60008060008060608587031215612036578182fd5b8435935060208501359250604085013567ffffffffffffffff8082111561205b578384fd5b818701915087601f83011261206e578384fd5b81358181111561207c578485fd5b88602082850101111561208d578485fd5b95989497505060200194505050565b6000602082840312156120ad578081fd5b815167ffffffffffffffff8111156120c3578182fd5b8201601f810184136120d3578182fd5b80516120e1611e0c826125ab565b8181528560208385010111156120f5578384fd5b6119cc8260208301602086016125cd565b600060208284031215612117578081fd5b813567ffffffffffffffff8082111561212e578283fd5b9083019060a08286031215612141578283fd5b60405160a08101818110838211171561215657fe5b604052823582811115612167578485fd5b61217387828601611dee565b82525061218260208401611de3565b602082015260408301356040820152606083013560608201526080830135608082015280935050505092915050565b600061010082840312156121c3578081fd5b611e6d8383611e3f565b6000602082840312156121de578081fd5b813567ffffffffffffffff8111156121f4578182fd5b820160a08185031215611e6d578182fd5b600060208284031215612216578081fd5b813567ffffffffffffffff8082111561222d578283fd5b9083019060408286031215612240578283fd5b60405160408101818110838211171561225557fe5b604052823582811115612266578485fd5b61227287828601611dee565b82525060208301359250612285836125f9565b6020810192909252509392505050565b6000602082840312156122a6578081fd5b813562ffffff81168114611e6d578182fd5b600080604083850312156122ca578182fd5b8235915060208301356122dc816125f9565b809150509250929050565b600080600080608085870312156122fc578182fd5b84359350602085013561230e816125f9565b9250604085013591506060850135612325816125f9565b939692955090935050565b600081518084526123488160208601602086016125cd565b601f01601f19169290920160200192915050565b606093841b6bffffffffffffffffffffffff19908116825260e89390931b6001600160e81b0319166014820152921b166017820152602b0190565b6000828483379101908152919050565b6001600160a01b0391909116815260200190565b6001600160a01b03938416815291909216602082015262ffffff909116604082015260600190565b6001600160a01b0386811682528515156020830152604082018590528316606082015260a06080820181905260009061241e90830184612330565b979650505050505050565b6000602080830181845280855180835260408601915060408482028701019250838701855b8281101561247c57603f1988860301845261246a858351612330565b9450928501929085019060010161244e565b5092979650505050505050565b600060208252611e6d6020830184612330565b602080825260129082015271151bdbc81b5d58da081c995c5d595cdd195960721b604082015260600190565b602080825260139082015272151bdbc81b1a5d1d1b19481c9958d95a5d9959606a1b604082015260600190565b6000602082528251604060208401526125116060840182612330565b602094909401516001600160a01b0316604093909301929092525090919050565b90815260200190565b6000808335601e19843603018112612551578283fd5b83018035915067ffffffffffffffff82111561256b578283fd5b60200191503681900382131561258057600080fd5b9250929050565b60405181810167ffffffffffffffff811182821017156125a357fe5b604052919050565b600067ffffffffffffffff8211156125bf57fe5b50601f01601f191660200190565b60005b838110156125e85781810151838201526020016125d0565b83811115610f705750506000910152565b6001600160a01b038116811461260e57600080fd5b5056fea264697066735822122006b1a7c41d228d1df16276ddb662cd75865f0246a6cf73b07e51dcc765cd99c264736f6c63430007060033",
			"opcodes": "PUSH1 0xC0 PUSH1 0x40 MSTORE PUSH1 0x0 NOT PUSH1 0x0 SSTORE CALLVALUE DUP1 ISZERO PUSH3 0x17 JUMPI PUSH1 0x0 DUP1 REVERT JUMPDEST POP PUSH1 0x40 MLOAD PUSH3 0x2750 CODESIZE SUB DUP1 PUSH3 0x2750 DUP4 CODECOPY DUP2 ADD PUSH1 0x40 DUP2 SWAP1 MSTORE PUSH3 0x3A SWAP2 PUSH3 0x76 JUMP JUMPDEST PUSH1 0x1 PUSH1 0x1 PUSH1 0x60 SHL SUB NOT PUSH1 0x60 SWAP3 DUP4 SHL DUP2 AND PUSH1 0x80 MSTORE SWAP2 SHL AND PUSH1 0xA0 MSTORE PUSH3 0xAD JUMP JUMPDEST DUP1 MLOAD PUSH1 0x1 PUSH1 0x1 PUSH1 0xA0 SHL SUB DUP2 AND DUP2 EQ PUSH3 0x71 JUMPI PUSH1 0x0 DUP1 REVERT JUMPDEST SWAP2 SWAP1 POP JUMP JUMPDEST PUSH1 0x0 DUP1 PUSH1 0x40 DUP4 DUP6 SUB SLT ISZERO PUSH3 0x89 JUMPI DUP2 DUP3 REVERT JUMPDEST PUSH3 0x94 DUP4 PUSH3 0x59 JUMP JUMPDEST SWAP2 POP PUSH3 0xA4 PUSH1 0x20 DUP5 ADD PUSH3 0x59 JUMP JUMPDEST SWAP1 POP SWAP3 POP SWAP3 SWAP1 POP JUMP JUMPDEST PUSH1 0x80 MLOAD PUSH1 0x60 SHR PUSH1 0xA0 MLOAD PUSH1 0x60 SHR PUSH2 0x2647 PUSH3 0x109 PUSH1 0x0 CODECOPY DUP1 PUSH2 0x112 MSTORE DUP1 PUSH2 0x4C7 MSTORE DUP1 PUSH2 0x5B2 MSTORE DUP1 PUSH2 0x63F MSTORE DUP1 PUSH2 0x67F MSTORE DUP1 PUSH2 0x76A MSTORE DUP1 PUSH2 0x14A7 MSTORE DUP1 PUSH2 0x14ED MSTORE DUP1 PUSH2 0x1561 MSTORE POP DUP1 PUSH2 0xA42 MSTORE DUP1 PUSH2 0xD4F MSTORE DUP1 PUSH2 0x192E MSTORE POP PUSH2 0x2647 PUSH1 0x0 RETURN INVALID PUSH1 0x80 PUSH1 0x40 MSTORE PUSH1 0x4 CALLDATASIZE LT PUSH2 0x102 JUMPI PUSH1 0x0 CALLDATALOAD PUSH1 0xE0 SHR DUP1 PUSH4 0xAD62311C GT PUSH2 0x95 JUMPI DUP1 PUSH4 0xDB3E2198 GT PUSH2 0x64 JUMPI DUP1 PUSH4 0xDB3E2198 EQ PUSH2 0x291 JUMPI DUP1 PUSH4 0xDF2AB5BB EQ PUSH2 0x2A4 JUMPI DUP1 PUSH4 0xE0E189A0 EQ PUSH2 0x2B7 JUMPI DUP1 PUSH4 0xF28C0498 EQ PUSH2 0x2CA JUMPI DUP1 PUSH4 0xF3995C67 EQ PUSH2 0x2DD JUMPI PUSH2 0x172 JUMP JUMPDEST DUP1 PUSH4 0xAD62311C EQ PUSH2 0x236 JUMPI DUP1 PUSH4 0xC04B8D59 EQ PUSH2 0x256 JUMPI DUP1 PUSH4 0xC2E3140A EQ PUSH2 0x269 JUMPI DUP1 PUSH4 0xC45A0155 EQ PUSH2 0x27C JUMPI PUSH2 0x172 JUMP JUMPDEST DUP1 PUSH4 0x4AA4A4FC GT PUSH2 0xD1 JUMPI DUP1 PUSH4 0x4AA4A4FC EQ PUSH2 0x1CE JUMPI DUP1 PUSH4 0x9B2C0A37 EQ PUSH2 0x1F0 JUMPI DUP1 PUSH4 0xA4A78F0C EQ PUSH2 0x203 JUMPI DUP1 PUSH4 0xAC9650D8 EQ PUSH2 0x216 JUMPI PUSH2 0x172 JUMP JUMPDEST DUP1 PUSH4 0x12210E8A EQ PUSH2 0x177 JUMPI DUP1 PUSH4 0x414BF389 EQ PUSH2 0x17F JUMPI DUP1 PUSH4 0x4659A494 EQ PUSH2 0x1A8 JUMPI DUP1 PUSH4 0x49404B7C EQ PUSH2 0x1BB JUMPI PUSH2 0x172 JUMP JUMPDEST CALLDATASIZE PUSH2 0x172 JUMPI CALLER PUSH1 0x1 PUSH1 0x1 PUSH1 0xA0 SHL SUB PUSH32 0x0 AND EQ PUSH2 0x170 JUMPI PUSH1 0x40 DUP1 MLOAD PUSH3 0x461BCD PUSH1 0xE5 SHL DUP2 MSTORE PUSH1 0x20 PUSH1 0x4 DUP3 ADD MSTORE PUSH1 0x9 PUSH1 0x24 DUP3 ADD MSTORE PUSH9 0x4E6F74205745544839 PUSH1 0xB8 SHL PUSH1 0x44 DUP3 ADD MSTORE SWAP1 MLOAD SWAP1 DUP2 SWAP1 SUB PUSH1 0x64 ADD SWAP1 REVERT JUMPDEST STOP JUMPDEST PUSH1 0x0 DUP1 REVERT JUMPDEST PUSH2 0x170 PUSH2 0x2F0 JUMP JUMPDEST PUSH2 0x192 PUSH2 0x18D CALLDATASIZE PUSH1 0x4 PUSH2 0x21B1 JUMP JUMPDEST PUSH2 0x302 JUMP JUMPDEST PUSH1 0x40 MLOAD PUSH2 0x19F SWAP2 SWAP1 PUSH2 0x2532 JUMP JUMPDEST PUSH1 0x40 MLOAD DUP1 SWAP2 SUB SWAP1 RETURN JUMPDEST PUSH2 0x170 PUSH2 0x1B6 CALLDATASIZE PUSH1 0x4 PUSH2 0x1F2F JUMP JUMPDEST PUSH2 0x429 JUMP JUMPDEST PUSH2 0x170 PUSH2 0x1C9 CALLDATASIZE PUSH1 0x4 PUSH2 0x22B8 JUMP JUMPDEST PUSH2 0x4C3 JUMP JUMPDEST CALLVALUE DUP1 ISZERO PUSH2 0x1DA JUMPI PUSH1 0x0 DUP1 REVERT JUMPDEST POP PUSH2 0x1E3 PUSH2 0x63D JUMP JUMPDEST PUSH1 0x40 MLOAD PUSH2 0x19F SWAP2 SWAP1 PUSH2 0x23A7 JUMP JUMPDEST PUSH2 0x170 PUSH2 0x1FE CALLDATASIZE PUSH1 0x4 PUSH2 0x22E7 JUMP JUMPDEST PUSH2 0x661 JUMP JUMPDEST PUSH2 0x170 PUSH2 0x211 CALLDATASIZE PUSH1 0x4 PUSH2 0x1F2F JUMP JUMPDEST PUSH2 0x82D JUMP JUMPDEST PUSH2 0x229 PUSH2 0x224 CALLDATASIZE PUSH1 0x4 PUSH2 0x1F8F JUMP JUMPDEST PUSH2 0x8BE JUMP JUMPDEST PUSH1 0x40 MLOAD PUSH2 0x19F SWAP2 SWAP1 PUSH2 0x2429 JUMP JUMPDEST CALLVALUE DUP1 ISZERO PUSH2 0x242 JUMPI PUSH1 0x0 DUP1 REVERT JUMPDEST POP PUSH2 0x170 PUSH2 0x251 CALLDATASIZE PUSH1 0x4 PUSH2 0x2021 JUMP JUMPDEST PUSH2 0x9FE JUMP JUMPDEST PUSH2 0x192 PUSH2 0x264 CALLDATASIZE PUSH1 0x4 PUSH2 0x2106 JUMP JUMPDEST PUSH2 0xBAA JUMP JUMPDEST PUSH2 0x170 PUSH2 0x277 CALLDATASIZE PUSH1 0x4 PUSH2 0x1F2F JUMP JUMPDEST PUSH2 0xCBE JUMP JUMPDEST CALLVALUE DUP1 ISZERO PUSH2 0x288 JUMPI PUSH1 0x0 DUP1 REVERT JUMPDEST POP PUSH2 0x1E3 PUSH2 0xD4D JUMP JUMPDEST PUSH2 0x192 PUSH2 0x29F CALLDATASIZE PUSH1 0x4 PUSH2 0x21B1 JUMP JUMPDEST PUSH2 0xD71 JUMP JUMPDEST PUSH2 0x170 PUSH2 0x2B2 CALLDATASIZE PUSH1 0x4 PUSH2 0x1E90 JUMP JUMPDEST PUSH2 0xE98 JUMP JUMPDEST PUSH2 0x170 PUSH2 0x2C5 CALLDATASIZE PUSH1 0x4 PUSH2 0x1ED1 JUMP JUMPDEST PUSH2 0xF76 JUMP JUMPDEST PUSH2 0x192 PUSH2 0x2D8 CALLDATASIZE PUSH1 0x4 PUSH2 0x21CD JUMP JUMPDEST PUSH2 0x109D JUMP JUMPDEST PUSH2 0x170 PUSH2 0x2EB CALLDATASIZE PUSH1 0x4 PUSH2 0x1F2F JUMP JUMPDEST PUSH2 0x1193 JUMP JUMPDEST SELFBALANCE ISZERO PUSH2 0x300 JUMPI PUSH2 0x300 CALLER SELFBALANCE PUSH2 0x1205 JUMP JUMPDEST JUMP JUMPDEST PUSH1 0x0 DUP2 PUSH1 0x80 ADD CALLDATALOAD DUP1 PUSH2 0x312 PUSH2 0x12F4 JUMP JUMPDEST GT ISZERO PUSH2 0x35B JUMPI PUSH1 0x40 DUP1 MLOAD PUSH3 0x461BCD PUSH1 0xE5 SHL DUP2 MSTORE PUSH1 0x20 PUSH1 0x4 DUP3 ADD MSTORE PUSH1 0x13 PUSH1 0x24 DUP3 ADD MSTORE PUSH19 0x151C985B9CD858DD1A5BDB881D1BDBC81BDB19 PUSH1 0x6A SHL PUSH1 0x44 DUP3 ADD MSTORE SWAP1 MLOAD SWAP1 DUP2 SWAP1 SUB PUSH1 0x64 ADD SWAP1 REVERT JUMPDEST PUSH2 0x3F4 PUSH1 0xA0 DUP5 ADD CALLDATALOAD PUSH2 0x373 PUSH1 0x80 DUP7 ADD PUSH1 0x60 DUP8 ADD PUSH2 0x1E51 JUMP JUMPDEST PUSH2 0x384 PUSH2 0x100 DUP8 ADD PUSH1 0xE0 DUP9 ADD PUSH2 0x1E51 JUMP JUMPDEST PUSH1 0x40 DUP1 MLOAD DUP1 DUP3 ADD SWAP1 SWAP2 MSTORE DUP1 PUSH2 0x39C PUSH1 0x20 DUP11 ADD DUP11 PUSH2 0x1E51 JUMP JUMPDEST PUSH2 0x3AC PUSH1 0x60 DUP12 ADD PUSH1 0x40 DUP13 ADD PUSH2 0x2295 JUMP JUMPDEST PUSH2 0x3BC PUSH1 0x40 DUP13 ADD PUSH1 0x20 DUP14 ADD PUSH2 0x1E51 JUMP JUMPDEST PUSH1 0x40 MLOAD PUSH1 0x20 ADD PUSH2 0x3CE SWAP4 SWAP3 SWAP2 SWAP1 PUSH2 0x235C JUMP JUMPDEST PUSH1 0x40 MLOAD PUSH1 0x20 DUP2 DUP4 SUB SUB DUP2 MSTORE SWAP1 PUSH1 0x40 MSTORE DUP2 MSTORE PUSH1 0x20 ADD CALLER PUSH1 0x1 PUSH1 0x1 PUSH1 0xA0 SHL SUB AND DUP2 MSTORE POP PUSH2 0x12F8 JUMP JUMPDEST SWAP2 POP DUP3 PUSH1 0xC0 ADD CALLDATALOAD DUP3 LT ISZERO PUSH2 0x423 JUMPI PUSH1 0x40 MLOAD PUSH3 0x461BCD PUSH1 0xE5 SHL DUP2 MSTORE PUSH1 0x4 ADD PUSH2 0x41A SWAP1 PUSH2 0x24C8 JUMP JUMPDEST PUSH1 0x40 MLOAD DUP1 SWAP2 SUB SWAP1 REVERT JUMPDEST POP SWAP2 SWAP1 POP JUMP JUMPDEST PUSH1 0x40 DUP1 MLOAD PUSH4 0x23F2EBC3 PUSH1 0xE2 SHL DUP2 MSTORE CALLER PUSH1 0x4 DUP3 ADD MSTORE ADDRESS PUSH1 0x24 DUP3 ADD MSTORE PUSH1 0x44 DUP2 ADD DUP8 SWAP1 MSTORE PUSH1 0x64 DUP2 ADD DUP7 SWAP1 MSTORE PUSH1 0x1 PUSH1 0x84 DUP3 ADD MSTORE PUSH1 0xFF DUP6 AND PUSH1 0xA4 DUP3 ADD MSTORE PUSH1 0xC4 DUP2 ADD DUP5 SWAP1 MSTORE PUSH1 0xE4 DUP2 ADD DUP4 SWAP1 MSTORE SWAP1 MLOAD PUSH1 0x1 PUSH1 0x1 PUSH1 0xA0 SHL SUB DUP9 AND SWAP2 PUSH4 0x8FCBAF0C SWAP2 PUSH2 0x104 DUP1 DUP4 ADD SWAP3 PUSH1 0x0 SWAP3 SWAP2 SWAP1 DUP3 SWAP1 SUB ADD DUP2 DUP4 DUP8 DUP1 EXTCODESIZE ISZERO DUP1 ISZERO PUSH2 0x4A3 JUMPI PUSH1 0x0 DUP1 REVERT JUMPDEST POP GAS CALL ISZERO DUP1 ISZERO PUSH2 0x4B7 JUMPI RETURNDATASIZE PUSH1 0x0 DUP1 RETURNDATACOPY RETURNDATASIZE PUSH1 0x0 REVERT JUMPDEST POP POP POP POP POP POP POP POP POP POP JUMP JUMPDEST PUSH1 0x0 PUSH32 0x0 PUSH1 0x1 PUSH1 0x1 PUSH1 0xA0 SHL SUB AND PUSH4 0x70A08231 ADDRESS PUSH1 0x40 MLOAD DUP3 PUSH4 0xFFFFFFFF AND PUSH1 0xE0 SHL DUP2 MSTORE PUSH1 0x4 ADD DUP1 DUP3 PUSH1 0x1 PUSH1 0x1 PUSH1 0xA0 SHL SUB AND DUP2 MSTORE PUSH1 0x20 ADD SWAP2 POP POP PUSH1 0x20 PUSH1 0x40 MLOAD DUP1 DUP4 SUB DUP2 DUP7 DUP1 EXTCODESIZE ISZERO DUP1 ISZERO PUSH2 0x532 JUMPI PUSH1 0x0 DUP1 REVERT JUMPDEST POP GAS STATICCALL ISZERO DUP1 ISZERO PUSH2 0x546 JUMPI RETURNDATASIZE PUSH1 0x0 DUP1 RETURNDATACOPY RETURNDATASIZE PUSH1 0x0 REVERT JUMPDEST POP POP POP POP PUSH1 0x40 MLOAD RETURNDATASIZE PUSH1 0x20 DUP2 LT ISZERO PUSH2 0x55C JUMPI PUSH1 0x0 DUP1 REVERT JUMPDEST POP MLOAD SWAP1 POP DUP3 DUP2 LT ISZERO PUSH2 0x5AA JUMPI PUSH1 0x40 DUP1 MLOAD PUSH3 0x461BCD PUSH1 0xE5 SHL DUP2 MSTORE PUSH1 0x20 PUSH1 0x4 DUP3 ADD MSTORE PUSH1 0x12 PUSH1 0x24 DUP3 ADD MSTORE PUSH18 0x496E73756666696369656E74205745544839 PUSH1 0x70 SHL PUSH1 0x44 DUP3 ADD MSTORE SWAP1 MLOAD SWAP1 DUP2 SWAP1 SUB PUSH1 0x64 ADD SWAP1 REVERT JUMPDEST DUP1 ISZERO PUSH2 0x638 JUMPI PUSH32 0x0 PUSH1 0x1 PUSH1 0x1 PUSH1 0xA0 SHL SUB AND PUSH4 0x2E1A7D4D DUP3 PUSH1 0x40 MLOAD DUP3 PUSH4 0xFFFFFFFF AND PUSH1 0xE0 SHL DUP2 MSTORE PUSH1 0x4 ADD DUP1 DUP3 DUP2 MSTORE PUSH1 0x20 ADD SWAP2 POP POP PUSH1 0x0 PUSH1 0x40 MLOAD DUP1 DUP4 SUB DUP2 PUSH1 0x0 DUP8 DUP1 EXTCODESIZE ISZERO DUP1 ISZERO PUSH2 0x616 JUMPI PUSH1 0x0 DUP1 REVERT JUMPDEST POP GAS CALL ISZERO DUP1 ISZERO PUSH2 0x62A JUMPI RETURNDATASIZE PUSH1 0x0 DUP1 RETURNDATACOPY RETURNDATASIZE PUSH1 0x0 REVERT JUMPDEST POP POP POP POP PUSH2 0x638 DUP3 DUP3 PUSH2 0x1205 JUMP JUMPDEST POP POP POP JUMP JUMPDEST PUSH32 0x0 DUP2 JUMP JUMPDEST PUSH1 0x0 DUP3 GT DUP1 ISZERO PUSH2 0x672 JUMPI POP PUSH1 0x64 DUP3 GT ISZERO JUMPDEST PUSH2 0x67B JUMPI PUSH1 0x0 DUP1 REVERT JUMPDEST PUSH1 0x0 PUSH32 0x0 PUSH1 0x1 PUSH1 0x1 PUSH1 0xA0 SHL SUB AND PUSH4 0x70A08231 ADDRESS PUSH1 0x40 MLOAD DUP3 PUSH4 0xFFFFFFFF AND PUSH1 0xE0 SHL DUP2 MSTORE PUSH1 0x4 ADD DUP1 DUP3 PUSH1 0x1 PUSH1 0x1 PUSH1 0xA0 SHL SUB AND DUP2 MSTORE PUSH1 0x20 ADD SWAP2 POP POP PUSH1 0x20 PUSH1 0x40 MLOAD DUP1 DUP4 SUB DUP2 DUP7 DUP1 EXTCODESIZE ISZERO DUP1 ISZERO PUSH2 0x6EA JUMPI PUSH1 0x0 DUP1 REVERT JUMPDEST POP GAS STATICCALL ISZERO DUP1 ISZERO PUSH2 0x6FE JUMPI RETURNDATASIZE PUSH1 0x0 DUP1 RETURNDATACOPY RETURNDATASIZE PUSH1 0x0 REVERT JUMPDEST POP POP POP POP PUSH1 0x40 MLOAD RETURNDATASIZE PUSH1 0x20 DUP2 LT ISZERO PUSH2 0x714 JUMPI PUSH1 0x0 DUP1 REVERT JUMPDEST POP MLOAD SWAP1 POP DUP5 DUP2 LT ISZERO PUSH2 0x762 JUMPI PUSH1 0x40 DUP1 MLOAD PUSH3 0x461BCD PUSH1 0xE5 SHL DUP2 MSTORE PUSH1 0x20 PUSH1 0x4 DUP3 ADD MSTORE PUSH1 0x12 PUSH1 0x24 DUP3 ADD MSTORE PUSH18 0x496E73756666696369656E74205745544839 PUSH1 0x70 SHL PUSH1 0x44 DUP3 ADD MSTORE SWAP1 MLOAD SWAP1 DUP2 SWAP1 SUB PUSH1 0x64 ADD SWAP1 REVERT JUMPDEST DUP1 ISZERO PUSH2 0x826 JUMPI PUSH32 0x0 PUSH1 0x1 PUSH1 0x1 PUSH1 0xA0 SHL SUB AND PUSH4 0x2E1A7D4D DUP3 PUSH1 0x40 MLOAD DUP3 PUSH4 0xFFFFFFFF AND PUSH1 0xE0 SHL DUP2 MSTORE PUSH1 0x4 ADD DUP1 DUP3 DUP2 MSTORE PUSH1 0x20 ADD SWAP2 POP POP PUSH1 0x0 PUSH1 0x40 MLOAD DUP1 DUP4 SUB DUP2 PUSH1 0x0 DUP8 DUP1 EXTCODESIZE ISZERO DUP1 ISZERO PUSH2 0x7CE JUMPI PUSH1 0x0 DUP1 REVERT JUMPDEST POP GAS CALL ISZERO DUP1 ISZERO PUSH2 0x7E2 JUMPI RETURNDATASIZE PUSH1 0x0 DUP1 RETURNDATACOPY RETURNDATASIZE PUSH1 0x0 REVERT JUMPDEST POP POP POP POP PUSH1 0x0 PUSH2 0x2710 PUSH2 0x7FE DUP6 DUP5 PUSH2 0x144A SWAP1 SWAP2 SWAP1 PUSH4 0xFFFFFFFF AND JUMP JUMPDEST DUP2 PUSH2 0x805 JUMPI INVALID JUMPDEST DIV SWAP1 POP DUP1 ISZERO PUSH2 0x818 JUMPI PUSH2 0x818 DUP4 DUP3 PUSH2 0x1205 JUMP JUMPDEST PUSH2 0x824 DUP6 DUP3 DUP5 SUB PUSH2 0x1205 JUMP JUMPDEST POP JUMPDEST POP POP POP POP POP JUMP JUMPDEST PUSH1 0x40 DUP1 MLOAD PUSH4 0x6EB1769F PUSH1 0xE1 SHL DUP2 MSTORE CALLER PUSH1 0x4 DUP3 ADD MSTORE ADDRESS PUSH1 0x24 DUP3 ADD MSTORE SWAP1 MLOAD PUSH1 0x0 NOT SWAP2 PUSH1 0x1 PUSH1 0x1 PUSH1 0xA0 SHL SUB DUP10 AND SWAP2 PUSH4 0xDD62ED3E SWAP2 PUSH1 0x44 DUP1 DUP3 ADD SWAP3 PUSH1 0x20 SWAP3 SWAP1 SWAP2 SWAP1 DUP3 SWAP1 SUB ADD DUP2 DUP7 DUP1 EXTCODESIZE ISZERO DUP1 ISZERO PUSH2 0x87E JUMPI PUSH1 0x0 DUP1 REVERT JUMPDEST POP GAS STATICCALL ISZERO DUP1 ISZERO PUSH2 0x892 JUMPI RETURNDATASIZE PUSH1 0x0 DUP1 RETURNDATACOPY RETURNDATASIZE PUSH1 0x0 REVERT JUMPDEST POP POP POP POP PUSH1 0x40 MLOAD RETURNDATASIZE PUSH1 0x20 DUP2 LT ISZERO PUSH2 0x8A8 JUMPI PUSH1 0x0 DUP1 REVERT JUMPDEST POP MLOAD LT ISZERO PUSH2 0x824 JUMPI PUSH2 0x824 DUP7 DUP7 DUP7 DUP7 DUP7 DUP7 PUSH2 0x429 JUMP JUMPDEST PUSH1 0x60 DUP2 PUSH8 0xFFFFFFFFFFFFFFFF DUP2 GT DUP1 ISZERO PUSH2 0x8D7 JUMPI PUSH1 0x0 DUP1 REVERT JUMPDEST POP PUSH1 0x40 MLOAD SWAP1 DUP1 DUP3 MSTORE DUP1 PUSH1 0x20 MUL PUSH1 0x20 ADD DUP3 ADD PUSH1 0x40 MSTORE DUP1 ISZERO PUSH2 0x90B JUMPI DUP2 PUSH1 0x20 ADD JUMPDEST PUSH1 0x60 DUP2 MSTORE PUSH1 0x20 ADD SWAP1 PUSH1 0x1 SWAP1 SUB SWAP1 DUP2 PUSH2 0x8F6 JUMPI SWAP1 POP JUMPDEST POP SWAP1 POP PUSH1 0x0 JUMPDEST DUP3 DUP2 LT ISZERO PUSH2 0x9F7 JUMPI PUSH1 0x0 DUP1 ADDRESS DUP7 DUP7 DUP6 DUP2 DUP2 LT PUSH2 0x929 JUMPI INVALID JUMPDEST SWAP1 POP PUSH1 0x20 MUL DUP2 ADD SWAP1 PUSH2 0x93B SWAP2 SWAP1 PUSH2 0x253B JUMP JUMPDEST PUSH1 0x40 MLOAD PUSH2 0x949 SWAP3 SWAP2 SWAP1 PUSH2 0x2397 JUMP JUMPDEST PUSH1 0x0 PUSH1 0x40 MLOAD DUP1 DUP4 SUB DUP2 DUP6 GAS DELEGATECALL SWAP2 POP POP RETURNDATASIZE DUP1 PUSH1 0x0 DUP2 EQ PUSH2 0x984 JUMPI PUSH1 0x40 MLOAD SWAP2 POP PUSH1 0x1F NOT PUSH1 0x3F RETURNDATASIZE ADD AND DUP3 ADD PUSH1 0x40 MSTORE RETURNDATASIZE DUP3 MSTORE RETURNDATASIZE PUSH1 0x0 PUSH1 0x20 DUP5 ADD RETURNDATACOPY PUSH2 0x989 JUMP JUMPDEST PUSH1 0x60 SWAP2 POP JUMPDEST POP SWAP2 POP SWAP2 POP DUP2 PUSH2 0x9D5 JUMPI PUSH1 0x44 DUP2 MLOAD LT ISZERO PUSH2 0x9A2 JUMPI PUSH1 0x0 DUP1 REVERT JUMPDEST PUSH1 0x4 DUP2 ADD SWAP1 POP DUP1 DUP1 PUSH1 0x20 ADD SWAP1 MLOAD DUP2 ADD SWAP1 PUSH2 0x9BC SWAP2 SWAP1 PUSH2 0x209C JUMP JUMPDEST PUSH1 0x40 MLOAD PUSH3 0x461BCD PUSH1 0xE5 SHL DUP2 MSTORE PUSH1 0x4 ADD PUSH2 0x41A SWAP2 SWAP1 PUSH2 0x2489 JUMP JUMPDEST DUP1 DUP5 DUP5 DUP2 MLOAD DUP2 LT PUSH2 0x9E2 JUMPI INVALID JUMPDEST PUSH1 0x20 SWAP1 DUP2 MUL SWAP2 SWAP1 SWAP2 ADD ADD MSTORE POP POP PUSH1 0x1 ADD PUSH2 0x911 JUMP JUMPDEST POP SWAP3 SWAP2 POP POP JUMP JUMPDEST PUSH1 0x0 DUP5 SGT DUP1 PUSH2 0xA0D JUMPI POP PUSH1 0x0 DUP4 SGT JUMPDEST PUSH2 0xA16 JUMPI PUSH1 0x0 DUP1 REVERT JUMPDEST PUSH1 0x0 PUSH2 0xA24 DUP3 DUP5 ADD DUP5 PUSH2 0x2205 JUMP JUMPDEST SWAP1 POP PUSH1 0x0 DUP1 PUSH1 0x0 PUSH2 0xA38 DUP5 PUSH1 0x0 ADD MLOAD PUSH2 0x1474 JUMP JUMPDEST SWAP3 POP SWAP3 POP SWAP3 POP PUSH1 0x0 PUSH32 0x0 PUSH1 0x1 PUSH1 0x1 PUSH1 0xA0 SHL SUB AND PUSH4 0x1698EE82 DUP6 DUP6 DUP6 PUSH1 0x40 MLOAD DUP5 PUSH4 0xFFFFFFFF AND PUSH1 0xE0 SHL DUP2 MSTORE PUSH1 0x4 ADD PUSH2 0xA90 SWAP4 SWAP3 SWAP2 SWAP1 PUSH2 0x23BB JUMP JUMPDEST PUSH1 0x20 PUSH1 0x40 MLOAD DUP1 DUP4 SUB DUP2 DUP7 DUP1 EXTCODESIZE ISZERO DUP1 ISZERO PUSH2 0xAA8 JUMPI PUSH1 0x0 DUP1 REVERT JUMPDEST POP GAS STATICCALL ISZERO DUP1 ISZERO PUSH2 0xABC JUMPI RETURNDATASIZE PUSH1 0x0 DUP1 RETURNDATACOPY RETURNDATASIZE PUSH1 0x0 REVERT JUMPDEST POP POP POP POP PUSH1 0x40 MLOAD RETURNDATASIZE PUSH1 0x1F NOT PUSH1 0x1F DUP3 ADD AND DUP3 ADD DUP1 PUSH1 0x40 MSTORE POP DUP2 ADD SWAP1 PUSH2 0xAE0 SWAP2 SWAP1 PUSH2 0x1E74 JUMP JUMPDEST SWAP1 POP CALLER PUSH1 0x1 PUSH1 0x1 PUSH1 0xA0 SHL SUB DUP3 AND EQ PUSH2 0xAF7 JUMPI PUSH1 0x0 DUP1 REVERT JUMPDEST PUSH1 0x0 DUP1 PUSH1 0x0 DUP12 SGT PUSH2 0xB1D JUMPI DUP6 PUSH1 0x1 PUSH1 0x1 PUSH1 0xA0 SHL SUB AND DUP6 PUSH1 0x1 PUSH1 0x1 PUSH1 0xA0 SHL SUB AND LT DUP11 PUSH2 0xB34 JUMP JUMPDEST DUP5 PUSH1 0x1 PUSH1 0x1 PUSH1 0xA0 SHL SUB AND DUP7 PUSH1 0x1 PUSH1 0x1 PUSH1 0xA0 SHL SUB AND LT DUP12 JUMPDEST SWAP2 POP SWAP2 POP DUP2 ISZERO PUSH2 0xB53 JUMPI PUSH2 0xB4E DUP7 DUP9 PUSH1 0x20 ADD MLOAD CALLER DUP5 PUSH2 0x14A5 JUMP JUMPDEST PUSH2 0xB9D JUMP JUMPDEST DUP7 MLOAD PUSH2 0xB5E SWAP1 PUSH2 0x1635 JUMP JUMPDEST ISZERO PUSH2 0xB83 JUMPI DUP7 MLOAD PUSH2 0xB6E SWAP1 PUSH2 0x1641 JUMP JUMPDEST DUP8 MSTORE PUSH2 0xB7D DUP2 CALLER PUSH1 0x0 DUP11 PUSH2 0x1658 JUMP JUMPDEST POP PUSH2 0xB9D JUMP JUMPDEST DUP1 PUSH1 0x0 DUP2 SWAP1 SSTORE POP DUP5 SWAP6 POP PUSH2 0xB9D DUP7 DUP9 PUSH1 0x20 ADD MLOAD CALLER DUP5 PUSH2 0x14A5 JUMP JUMPDEST POP POP POP POP POP POP POP POP POP POP POP JUMP JUMPDEST PUSH1 0x0 DUP2 PUSH1 0x40 ADD MLOAD DUP1 PUSH2 0xBBA PUSH2 0x12F4 JUMP JUMPDEST GT ISZERO PUSH2 0xC03 JUMPI PUSH1 0x40 DUP1 MLOAD PUSH3 0x461BCD PUSH1 0xE5 SHL DUP2 MSTORE PUSH1 0x20 PUSH1 0x4 DUP3 ADD MSTORE PUSH1 0x13 PUSH1 0x24 DUP3 ADD MSTORE PUSH19 0x151C985B9CD858DD1A5BDB881D1BDBC81BDB19 PUSH1 0x6A SHL PUSH1 0x44 DUP3 ADD MSTORE SWAP1 MLOAD SWAP1 DUP2 SWAP1 SUB PUSH1 0x64 ADD SWAP1 REVERT JUMPDEST CALLER JUMPDEST PUSH1 0x0 PUSH2 0xC14 DUP6 PUSH1 0x0 ADD MLOAD PUSH2 0x1635 JUMP JUMPDEST SWAP1 POP PUSH2 0xC60 DUP6 PUSH1 0x60 ADD MLOAD DUP3 PUSH2 0xC2D JUMPI DUP7 PUSH1 0x20 ADD MLOAD PUSH2 0xC2F JUMP JUMPDEST ADDRESS JUMPDEST PUSH1 0x0 PUSH1 0x40 MLOAD DUP1 PUSH1 0x40 ADD PUSH1 0x40 MSTORE DUP1 PUSH2 0xC49 DUP12 PUSH1 0x0 ADD MLOAD PUSH2 0x17D3 JUMP JUMPDEST DUP2 MSTORE PUSH1 0x20 ADD DUP8 PUSH1 0x1 PUSH1 0x1 PUSH1 0xA0 SHL SUB AND DUP2 MSTORE POP PUSH2 0x12F8 JUMP JUMPDEST PUSH1 0x60 DUP7 ADD MSTORE DUP1 ISZERO PUSH2 0xC80 JUMPI DUP5 MLOAD ADDRESS SWAP3 POP PUSH2 0xC79 SWAP1 PUSH2 0x1641 JUMP JUMPDEST DUP6 MSTORE PUSH2 0xC8D JUMP JUMPDEST DUP5 PUSH1 0x60 ADD MLOAD SWAP4 POP POP PUSH2 0xC93 JUMP JUMPDEST POP PUSH2 0xC05 JUMP JUMPDEST DUP4 PUSH1 0x80 ADD MLOAD DUP4 LT ISZERO PUSH2 0xCB7 JUMPI PUSH1 0x40 MLOAD PUSH3 0x461BCD PUSH1 0xE5 SHL DUP2 MSTORE PUSH1 0x4 ADD PUSH2 0x41A SWAP1 PUSH2 0x24C8 JUMP JUMPDEST POP POP SWAP2 SWAP1 POP JUMP JUMPDEST PUSH1 0x40 DUP1 MLOAD PUSH4 0x6EB1769F PUSH1 0xE1 SHL DUP2 MSTORE CALLER PUSH1 0x4 DUP3 ADD MSTORE ADDRESS PUSH1 0x24 DUP3 ADD MSTORE SWAP1 MLOAD DUP7 SWAP2 PUSH1 0x1 PUSH1 0x1 PUSH1 0xA0 SHL SUB DUP10 AND SWAP2 PUSH4 0xDD62ED3E SWAP2 PUSH1 0x44 DUP1 DUP3 ADD SWAP3 PUSH1 0x20 SWAP3 SWAP1 SWAP2 SWAP1 DUP3 SWAP1 SUB ADD DUP2 DUP7 DUP1 EXTCODESIZE ISZERO DUP1 ISZERO PUSH2 0xD0D JUMPI PUSH1 0x0 DUP1 REVERT JUMPDEST POP GAS STATICCALL ISZERO DUP1 ISZERO PUSH2 0xD21 JUMPI RETURNDATASIZE PUSH1 0x0 DUP1 RETURNDATACOPY RETURNDATASIZE PUSH1 0x0 REVERT JUMPDEST POP POP POP POP PUSH1 0x40 MLOAD RETURNDATASIZE PUSH1 0x20 DUP2 LT ISZERO PUSH2 0xD37 JUMPI PUSH1 0x0 DUP1 REVERT JUMPDEST POP MLOAD LT ISZERO PUSH2 0x824 JUMPI PUSH2 0x824 DUP7 DUP7 DUP7 DUP7 DUP7 DUP7 PUSH2 0x1193 JUMP JUMPDEST PUSH32 0x0 DUP2 JUMP JUMPDEST PUSH1 0x0 DUP2 PUSH1 0x80 ADD CALLDATALOAD DUP1 PUSH2 0xD81 PUSH2 0x12F4 JUMP JUMPDEST GT ISZERO PUSH2 0xDCA JUMPI PUSH1 0x40 DUP1 MLOAD PUSH3 0x461BCD PUSH1 0xE5 SHL DUP2 MSTORE PUSH1 0x20 PUSH1 0x4 DUP3 ADD MSTORE PUSH1 0x13 PUSH1 0x24 DUP3 ADD MSTORE PUSH19 0x151C985B9CD858DD1A5BDB881D1BDBC81BDB19 PUSH1 0x6A SHL PUSH1 0x44 DUP3 ADD MSTORE SWAP1 MLOAD SWAP1 DUP2 SWAP1 SUB PUSH1 0x64 ADD SWAP1 REVERT JUMPDEST PUSH2 0xE66 PUSH1 0xA0 DUP5 ADD CALLDATALOAD PUSH2 0xDE2 PUSH1 0x80 DUP7 ADD PUSH1 0x60 DUP8 ADD PUSH2 0x1E51 JUMP JUMPDEST PUSH2 0xDF3 PUSH2 0x100 DUP8 ADD PUSH1 0xE0 DUP9 ADD PUSH2 0x1E51 JUMP JUMPDEST PUSH1 0x40 MLOAD DUP1 PUSH1 0x40 ADD PUSH1 0x40 MSTORE DUP1 DUP9 PUSH1 0x20 ADD PUSH1 0x20 DUP2 ADD SWAP1 PUSH2 0xE11 SWAP2 SWAP1 PUSH2 0x1E51 JUMP JUMPDEST PUSH2 0xE21 PUSH1 0x60 DUP12 ADD PUSH1 0x40 DUP13 ADD PUSH2 0x2295 JUMP JUMPDEST PUSH2 0xE2E PUSH1 0x20 DUP13 ADD DUP13 PUSH2 0x1E51 JUMP JUMPDEST PUSH1 0x40 MLOAD PUSH1 0x20 ADD PUSH2 0xE40 SWAP4 SWAP3 SWAP2 SWAP1 PUSH2 0x235C JUMP JUMPDEST PUSH1 0x40 MLOAD PUSH1 0x20 DUP2 DUP4 SUB SUB DUP2 MSTORE SWAP1 PUSH1 0x40 MSTORE DUP2 MSTORE PUSH1 0x20 ADD CALLER PUSH1 0x1 PUSH1 0x1 PUSH1 0xA0 SHL SUB AND DUP2 MSTORE POP PUSH2 0x1658 JUMP JUMPDEST SWAP2 POP DUP3 PUSH1 0xC0 ADD CALLDATALOAD DUP3 GT ISZERO PUSH2 0xE8C JUMPI PUSH1 0x40 MLOAD PUSH3 0x461BCD PUSH1 0xE5 SHL DUP2 MSTORE PUSH1 0x4 ADD PUSH2 0x41A SWAP1 PUSH2 0x249C JUMP JUMPDEST POP PUSH1 0x0 NOT PUSH1 0x0 SSTORE SWAP2 SWAP1 POP JUMP JUMPDEST PUSH1 0x0 DUP4 PUSH1 0x1 PUSH1 0x1 PUSH1 0xA0 SHL SUB AND PUSH4 0x70A08231 ADDRESS PUSH1 0x40 MLOAD DUP3 PUSH4 0xFFFFFFFF AND PUSH1 0xE0 SHL DUP2 MSTORE PUSH1 0x4 ADD DUP1 DUP3 PUSH1 0x1 PUSH1 0x1 PUSH1 0xA0 SHL SUB AND DUP2 MSTORE PUSH1 0x20 ADD SWAP2 POP POP PUSH1 0x20 PUSH1 0x40 MLOAD DUP1 DUP4 SUB DUP2 DUP7 DUP1 EXTCODESIZE ISZERO DUP1 ISZERO PUSH2 0xEE7 JUMPI PUSH1 0x0 DUP1 REVERT JUMPDEST POP GAS STATICCALL ISZERO DUP1 ISZERO PUSH2 0xEFB JUMPI RETURNDATASIZE PUSH1 0x0 DUP1 RETURNDATACOPY RETURNDATASIZE PUSH1 0x0 REVERT JUMPDEST POP POP POP POP PUSH1 0x40 MLOAD RETURNDATASIZE PUSH1 0x20 DUP2 LT ISZERO PUSH2 0xF11 JUMPI PUSH1 0x0 DUP1 REVERT JUMPDEST POP MLOAD SWAP1 POP DUP3 DUP2 LT ISZERO PUSH2 0xF5F JUMPI PUSH1 0x40 DUP1 MLOAD PUSH3 0x461BCD PUSH1 0xE5 SHL DUP2 MSTORE PUSH1 0x20 PUSH1 0x4 DUP3 ADD MSTORE PUSH1 0x12 PUSH1 0x24 DUP3 ADD MSTORE PUSH18 0x24B739BAB33334B1B4B2B73A103A37B5B2B7 PUSH1 0x71 SHL PUSH1 0x44 DUP3 ADD MSTORE SWAP1 MLOAD SWAP1 DUP2 SWAP1 SUB PUSH1 0x64 ADD SWAP1 REVERT JUMPDEST DUP1 ISZERO PUSH2 0xF70 JUMPI PUSH2 0xF70 DUP5 DUP4 DUP4 PUSH2 0x17E2 JUMP JUMPDEST POP POP POP POP JUMP JUMPDEST PUSH1 0x0 DUP3 GT DUP1 ISZERO PUSH2 0xF87 JUMPI POP PUSH1 0x64 DUP3 GT ISZERO JUMPDEST PUSH2 0xF90 JUMPI PUSH1 0x0 DUP1 REVERT JUMPDEST PUSH1 0x0 DUP6 PUSH1 0x1 PUSH1 0x1 PUSH1 0xA0 SHL SUB AND PUSH4 0x70A08231 ADDRESS PUSH1 0x40 MLOAD DUP3 PUSH4 0xFFFFFFFF AND PUSH1 0xE0 SHL DUP2 MSTORE PUSH1 0x4 ADD DUP1 DUP3 PUSH1 0x1 PUSH1 0x1 PUSH1 0xA0 SHL SUB AND DUP2 MSTORE PUSH1 0x20 ADD SWAP2 POP POP PUSH1 0x20 PUSH1 0x40 MLOAD DUP1 DUP4 SUB DUP2 DUP7 DUP1 EXTCODESIZE ISZERO DUP1 ISZERO PUSH2 0xFDF JUMPI PUSH1 0x0 DUP1 REVERT JUMPDEST POP GAS STATICCALL ISZERO DUP1 ISZERO PUSH2 0xFF3 JUMPI RETURNDATASIZE PUSH1 0x0 DUP1 RETURNDATACOPY RETURNDATASIZE PUSH1 0x0 REVERT JUMPDEST POP POP POP POP PUSH1 0x40 MLOAD RETURNDATASIZE PUSH1 0x20 DUP2 LT ISZERO PUSH2 0x1009 JUMPI PUSH1 0x0 DUP1 REVERT JUMPDEST POP MLOAD SWAP1 POP DUP5 DUP2 LT ISZERO PUSH2 0x1057 JUMPI PUSH1 0x40 DUP1 MLOAD PUSH3 0x461BCD PUSH1 0xE5 SHL DUP2 MSTORE PUSH1 0x20 PUSH1 0x4 DUP3 ADD MSTORE PUSH1 0x12 PUSH1 0x24 DUP3 ADD MSTORE PUSH18 0x24B739BAB33334B1B4B2B73A103A37B5B2B7 PUSH1 0x71 SHL PUSH1 0x44 DUP3 ADD MSTORE SWAP1 MLOAD SWAP1 DUP2 SWAP1 SUB PUSH1 0x64 ADD SWAP1 REVERT JUMPDEST DUP1 ISZERO PUSH2 0x824 JUMPI PUSH1 0x0 PUSH2 0x2710 PUSH2 0x106C DUP4 DUP7 PUSH2 0x144A JUMP JUMPDEST DUP2 PUSH2 0x1073 JUMPI INVALID JUMPDEST DIV SWAP1 POP DUP1 ISZERO PUSH2 0x1087 JUMPI PUSH2 0x1087 DUP8 DUP5 DUP4 PUSH2 0x17E2 JUMP JUMPDEST PUSH2 0x1094 DUP8 DUP7 DUP4 DUP6 SUB PUSH2 0x17E2 JUMP JUMPDEST POP POP POP POP POP POP POP JUMP JUMPDEST PUSH1 0x0 DUP2 PUSH1 0x40 ADD CALLDATALOAD DUP1 PUSH2 0x10AD PUSH2 0x12F4 JUMP JUMPDEST GT ISZERO PUSH2 0x10F6 JUMPI PUSH1 0x40 DUP1 MLOAD PUSH3 0x461BCD PUSH1 0xE5 SHL DUP2 MSTORE PUSH1 0x20 PUSH1 0x4 DUP3 ADD MSTORE PUSH1 0x13 PUSH1 0x24 DUP3 ADD MSTORE PUSH19 0x151C985B9CD858DD1A5BDB881D1BDBC81BDB19 PUSH1 0x6A SHL PUSH1 0x44 DUP3 ADD MSTORE SWAP1 MLOAD SWAP1 DUP2 SWAP1 SUB PUSH1 0x64 ADD SWAP1 REVERT JUMPDEST PUSH2 0x1169 PUSH1 0x60 DUP5 ADD CALLDATALOAD PUSH2 0x110E PUSH1 0x40 DUP7 ADD PUSH1 0x20 DUP8 ADD PUSH2 0x1E51 JUMP JUMPDEST PUSH1 0x40 DUP1 MLOAD DUP1 DUP3 ADD SWAP1 SWAP2 MSTORE PUSH1 0x0 SWAP1 DUP1 PUSH2 0x1126 DUP10 DUP1 PUSH2 0x253B JUMP JUMPDEST DUP1 DUP1 PUSH1 0x1F ADD PUSH1 0x20 DUP1 SWAP2 DIV MUL PUSH1 0x20 ADD PUSH1 0x40 MLOAD SWAP1 DUP2 ADD PUSH1 0x40 MSTORE DUP1 SWAP4 SWAP3 SWAP2 SWAP1 DUP2 DUP2 MSTORE PUSH1 0x20 ADD DUP4 DUP4 DUP1 DUP3 DUP5 CALLDATACOPY PUSH1 0x0 SWAP3 ADD SWAP2 SWAP1 SWAP2 MSTORE POP POP POP SWAP1 DUP3 MSTORE POP CALLER PUSH1 0x20 SWAP1 SWAP2 ADD MSTORE PUSH2 0x1658 JUMP JUMPDEST POP PUSH1 0x0 SLOAD SWAP2 POP DUP3 PUSH1 0x80 ADD CALLDATALOAD DUP3 GT ISZERO PUSH2 0xE8C JUMPI PUSH1 0x40 MLOAD PUSH3 0x461BCD PUSH1 0xE5 SHL DUP2 MSTORE PUSH1 0x4 ADD PUSH2 0x41A SWAP1 PUSH2 0x249C JUMP JUMPDEST PUSH1 0x40 DUP1 MLOAD PUSH4 0xD505ACCF PUSH1 0xE0 SHL DUP2 MSTORE CALLER PUSH1 0x4 DUP3 ADD MSTORE ADDRESS PUSH1 0x24 DUP3 ADD MSTORE PUSH1 0x44 DUP2 ADD DUP8 SWAP1 MSTORE PUSH1 0x64 DUP2 ADD DUP7 SWAP1 MSTORE PUSH1 0xFF DUP6 AND PUSH1 0x84 DUP3 ADD MSTORE PUSH1 0xA4 DUP2 ADD DUP5 SWAP1 MSTORE PUSH1 0xC4 DUP2 ADD DUP4 SWAP1 MSTORE SWAP1 MLOAD PUSH1 0x1 PUSH1 0x1 PUSH1 0xA0 SHL SUB DUP9 AND SWAP2 PUSH4 0xD505ACCF SWAP2 PUSH1 0xE4 DUP1 DUP4 ADD SWAP3 PUSH1 0x0 SWAP3 SWAP2 SWAP1 DUP3 SWAP1 SUB ADD DUP2 DUP4 DUP8 DUP1 EXTCODESIZE ISZERO DUP1 ISZERO PUSH2 0x4A3 JUMPI PUSH1 0x0 DUP1 REVERT JUMPDEST PUSH1 0x40 DUP1 MLOAD PUSH1 0x0 DUP1 DUP3 MSTORE PUSH1 0x20 DUP3 ADD SWAP1 SWAP3 MSTORE PUSH1 0x1 PUSH1 0x1 PUSH1 0xA0 SHL SUB DUP5 AND SWAP1 DUP4 SWAP1 PUSH1 0x40 MLOAD DUP1 DUP3 DUP1 MLOAD SWAP1 PUSH1 0x20 ADD SWAP1 DUP1 DUP4 DUP4 JUMPDEST PUSH1 0x20 DUP4 LT PUSH2 0x1251 JUMPI DUP1 MLOAD DUP3 MSTORE PUSH1 0x1F NOT SWAP1 SWAP3 ADD SWAP2 PUSH1 0x20 SWAP2 DUP3 ADD SWAP2 ADD PUSH2 0x1232 JUMP JUMPDEST PUSH1 0x1 DUP4 PUSH1 0x20 SUB PUSH2 0x100 EXP SUB DUP1 NOT DUP3 MLOAD AND DUP2 DUP5 MLOAD AND DUP1 DUP3 OR DUP6 MSTORE POP POP POP POP POP POP SWAP1 POP ADD SWAP2 POP POP PUSH1 0x0 PUSH1 0x40 MLOAD DUP1 DUP4 SUB DUP2 DUP6 DUP8 GAS CALL SWAP3 POP POP POP RETURNDATASIZE DUP1 PUSH1 0x0 DUP2 EQ PUSH2 0x12B3 JUMPI PUSH1 0x40 MLOAD SWAP2 POP PUSH1 0x1F NOT PUSH1 0x3F RETURNDATASIZE ADD AND DUP3 ADD PUSH1 0x40 MSTORE RETURNDATASIZE DUP3 MSTORE RETURNDATASIZE PUSH1 0x0 PUSH1 0x20 DUP5 ADD RETURNDATACOPY PUSH2 0x12B8 JUMP JUMPDEST PUSH1 0x60 SWAP2 POP JUMPDEST POP POP SWAP1 POP DUP1 PUSH2 0x638 JUMPI PUSH1 0x40 DUP1 MLOAD PUSH3 0x461BCD PUSH1 0xE5 SHL DUP2 MSTORE PUSH1 0x20 PUSH1 0x4 DUP3 ADD MSTORE PUSH1 0x3 PUSH1 0x24 DUP3 ADD MSTORE PUSH3 0x535445 PUSH1 0xE8 SHL PUSH1 0x44 DUP3 ADD MSTORE SWAP1 MLOAD SWAP1 DUP2 SWAP1 SUB PUSH1 0x64 ADD SWAP1 REVERT JUMPDEST TIMESTAMP SWAP1 JUMP JUMPDEST PUSH1 0x0 PUSH1 0x1 PUSH1 0x1 PUSH1 0xA0 SHL SUB DUP5 AND PUSH2 0x130C JUMPI ADDRESS SWAP4 POP JUMPDEST PUSH1 0x0 DUP1 PUSH1 0x0 PUSH2 0x131E DUP6 PUSH1 0x0 ADD MLOAD PUSH2 0x1474 JUMP JUMPDEST SWAP2 SWAP5 POP SWAP3 POP SWAP1 POP PUSH1 0x1 PUSH1 0x1 PUSH1 0xA0 SHL SUB DUP1 DUP4 AND SWAP1 DUP5 AND LT PUSH1 0x0 DUP1 PUSH2 0x1342 DUP7 DUP7 DUP7 PUSH2 0x1929 JUMP JUMPDEST PUSH1 0x1 PUSH1 0x1 PUSH1 0xA0 SHL SUB AND PUSH4 0x128ACB08 DUP12 DUP6 PUSH2 0x135B DUP16 PUSH2 0x19D5 JUMP JUMPDEST PUSH1 0x1 PUSH1 0x1 PUSH1 0xA0 SHL SUB DUP15 AND ISZERO PUSH2 0x1370 JUMPI DUP14 PUSH2 0x1396 JUMP JUMPDEST DUP8 PUSH2 0x138F JUMPI PUSH20 0xFFFD8963EFD1FC6A506488495D951D5263988D25 PUSH2 0x1396 JUMP JUMPDEST PUSH5 0x1000276A4 JUMPDEST DUP14 PUSH1 0x40 MLOAD PUSH1 0x20 ADD PUSH2 0x13A7 SWAP2 SWAP1 PUSH2 0x24F5 JUMP JUMPDEST PUSH1 0x40 MLOAD PUSH1 0x20 DUP2 DUP4 SUB SUB DUP2 MSTORE SWAP1 PUSH1 0x40 MSTORE PUSH1 0x40 MLOAD DUP7 PUSH4 0xFFFFFFFF AND PUSH1 0xE0 SHL DUP2 MSTORE PUSH1 0x4 ADD PUSH2 0x13D6 SWAP6 SWAP5 SWAP4 SWAP3 SWAP2 SWAP1 PUSH2 0x23E3 JUMP JUMPDEST PUSH1 0x40 DUP1 MLOAD DUP1 DUP4 SUB DUP2 PUSH1 0x0 DUP8 DUP1 EXTCODESIZE ISZERO DUP1 ISZERO PUSH2 0x13EF JUMPI PUSH1 0x0 DUP1 REVERT JUMPDEST POP GAS CALL ISZERO DUP1 ISZERO PUSH2 0x1403 JUMPI RETURNDATASIZE PUSH1 0x0 DUP1 RETURNDATACOPY RETURNDATASIZE PUSH1 0x0 REVERT JUMPDEST POP POP POP POP PUSH1 0x40 MLOAD RETURNDATASIZE PUSH1 0x1F NOT PUSH1 0x1F DUP3 ADD AND DUP3 ADD DUP1 PUSH1 0x40 MSTORE POP DUP2 ADD SWAP1 PUSH2 0x1427 SWAP2 SWAP1 PUSH2 0x1FFE JUMP JUMPDEST SWAP2 POP SWAP2 POP DUP3 PUSH2 0x1436 JUMPI DUP2 PUSH2 0x1438 JUMP JUMPDEST DUP1 JUMPDEST PUSH1 0x0 SUB SWAP12 SWAP11 POP POP POP POP POP POP POP POP POP POP POP JUMP JUMPDEST PUSH1 0x0 DUP3 ISZERO DUP1 PUSH2 0x1465 JUMPI POP POP DUP2 DUP2 MUL DUP2 DUP4 DUP3 DUP2 PUSH2 0x1462 JUMPI INVALID JUMPDEST DIV EQ JUMPDEST PUSH2 0x146E JUMPI PUSH1 0x0 DUP1 REVERT JUMPDEST SWAP3 SWAP2 POP POP JUMP JUMPDEST PUSH1 0x0 DUP1 DUP1 PUSH2 0x1482 DUP5 DUP3 PUSH2 0x19EB JUMP JUMPDEST SWAP3 POP PUSH2 0x148F DUP5 PUSH1 0x14 PUSH2 0x1A9B JUMP JUMPDEST SWAP1 POP PUSH2 0x149C DUP5 PUSH1 0x17 PUSH2 0x19EB JUMP JUMPDEST SWAP2 POP SWAP2 SWAP4 SWAP1 SWAP3 POP JUMP JUMPDEST PUSH32 0x0 PUSH1 0x1 PUSH1 0x1 PUSH1 0xA0 SHL SUB AND DUP5 PUSH1 0x1 PUSH1 0x1 PUSH1 0xA0 SHL SUB AND EQ DUP1 ISZERO PUSH2 0x14E6 JUMPI POP DUP1 SELFBALANCE LT ISZERO JUMPDEST ISZERO PUSH2 0x1608 JUMPI PUSH32 0x0 PUSH1 0x1 PUSH1 0x1 PUSH1 0xA0 SHL SUB AND PUSH4 0xD0E30DB0 DUP3 PUSH1 0x40 MLOAD DUP3 PUSH4 0xFFFFFFFF AND PUSH1 0xE0 SHL DUP2 MSTORE PUSH1 0x4 ADD PUSH1 0x0 PUSH1 0x40 MLOAD DUP1 DUP4 SUB DUP2 DUP6 DUP9 DUP1 EXTCODESIZE ISZERO DUP1 ISZERO PUSH2 0x1546 JUMPI PUSH1 0x0 DUP1 REVERT JUMPDEST POP GAS CALL ISZERO DUP1 ISZERO PUSH2 0x155A JUMPI RETURNDATASIZE PUSH1 0x0 DUP1 RETURNDATACOPY RETURNDATASIZE PUSH1 0x0 REVERT JUMPDEST POP POP POP POP POP PUSH32 0x0 PUSH1 0x1 PUSH1 0x1 PUSH1 0xA0 SHL SUB AND PUSH4 0xA9059CBB DUP4 DUP4 PUSH1 0x40 MLOAD DUP4 PUSH4 0xFFFFFFFF AND PUSH1 0xE0 SHL DUP2 MSTORE PUSH1 0x4 ADD DUP1 DUP4 PUSH1 0x1 PUSH1 0x1 PUSH1 0xA0 SHL SUB AND DUP2 MSTORE PUSH1 0x20 ADD DUP3 DUP2 MSTORE PUSH1 0x20 ADD SWAP3 POP POP POP PUSH1 0x20 PUSH1 0x40 MLOAD DUP1 DUP4 SUB DUP2 PUSH1 0x0 DUP8 DUP1 EXTCODESIZE ISZERO DUP1 ISZERO PUSH2 0x15D6 JUMPI PUSH1 0x0 DUP1 REVERT JUMPDEST POP GAS CALL ISZERO DUP1 ISZERO PUSH2 0x15EA JUMPI RETURNDATASIZE PUSH1 0x0 DUP1 RETURNDATACOPY RETURNDATASIZE PUSH1 0x0 REVERT JUMPDEST POP POP POP POP PUSH1 0x40 MLOAD RETURNDATASIZE PUSH1 0x20 DUP2 LT ISZERO PUSH2 0x1600 JUMPI PUSH1 0x0 DUP1 REVERT JUMPDEST POP PUSH2 0xF70 SWAP1 POP JUMP JUMPDEST PUSH1 0x1 PUSH1 0x1 PUSH1 0xA0 SHL SUB DUP4 AND ADDRESS EQ ISZERO PUSH2 0x1629 JUMPI PUSH2 0x1624 DUP5 DUP4 DUP4 PUSH2 0x17E2 JUMP JUMPDEST PUSH2 0xF70 JUMP JUMPDEST PUSH2 0xF70 DUP5 DUP5 DUP5 DUP5 PUSH2 0x1B42 JUMP JUMPDEST DUP1 MLOAD PUSH1 0x42 GT ISZERO JUMPDEST SWAP2 SWAP1 POP JUMP JUMPDEST DUP1 MLOAD PUSH1 0x60 SWAP1 PUSH2 0x146E SWAP1 DUP4 SWAP1 PUSH1 0x17 SWAP1 PUSH1 0x16 NOT ADD PUSH2 0x1C92 JUMP JUMPDEST PUSH1 0x0 PUSH1 0x1 PUSH1 0x1 PUSH1 0xA0 SHL SUB DUP5 AND PUSH2 0x166C JUMPI ADDRESS SWAP4 POP JUMPDEST PUSH1 0x0 DUP1 PUSH1 0x0 PUSH2 0x167E DUP6 PUSH1 0x0 ADD MLOAD PUSH2 0x1474 JUMP JUMPDEST SWAP2 SWAP5 POP SWAP3 POP SWAP1 POP PUSH1 0x1 PUSH1 0x1 PUSH1 0xA0 SHL SUB DUP1 DUP5 AND SWAP1 DUP4 AND LT PUSH1 0x0 DUP1 PUSH2 0x16A2 DUP6 DUP8 DUP7 PUSH2 0x1929 JUMP JUMPDEST PUSH1 0x1 PUSH1 0x1 PUSH1 0xA0 SHL SUB AND PUSH4 0x128ACB08 DUP12 DUP6 PUSH2 0x16BB DUP16 PUSH2 0x19D5 JUMP JUMPDEST PUSH1 0x0 SUB PUSH1 0x1 PUSH1 0x1 PUSH1 0xA0 SHL SUB DUP15 AND ISZERO PUSH2 0x16D3 JUMPI DUP14 PUSH2 0x16F9 JUMP JUMPDEST DUP8 PUSH2 0x16F2 JUMPI PUSH20 0xFFFD8963EFD1FC6A506488495D951D5263988D25 PUSH2 0x16F9 JUMP JUMPDEST PUSH5 0x1000276A4 JUMPDEST DUP14 PUSH1 0x40 MLOAD PUSH1 0x20 ADD PUSH2 0x170A SWAP2 SWAP1 PUSH2 0x24F5 JUMP JUMPDEST PUSH1 0x40 MLOAD PUSH1 0x20 DUP2 DUP4 SUB SUB DUP2 MSTORE SWAP1 PUSH1 0x40 MSTORE PUSH1 0x40 MLOAD DUP7 PUSH4 0xFFFFFFFF AND PUSH1 0xE0 SHL DUP2 MSTORE PUSH1 0x4 ADD PUSH2 0x1739 SWAP6 SWAP5 SWAP4 SWAP3 SWAP2 SWAP1 PUSH2 0x23E3 JUMP JUMPDEST PUSH1 0x40 DUP1 MLOAD DUP1 DUP4 SUB DUP2 PUSH1 0x0 DUP8 DUP1 EXTCODESIZE ISZERO DUP1 ISZERO PUSH2 0x1752 JUMPI PUSH1 0x0 DUP1 REVERT JUMPDEST POP GAS CALL ISZERO DUP1 ISZERO PUSH2 0x1766 JUMPI RETURNDATASIZE PUSH1 0x0 DUP1 RETURNDATACOPY RETURNDATASIZE PUSH1 0x0 REVERT JUMPDEST POP POP POP POP PUSH1 0x40 MLOAD RETURNDATASIZE PUSH1 0x1F NOT PUSH1 0x1F DUP3 ADD AND DUP3 ADD DUP1 PUSH1 0x40 MSTORE POP DUP2 ADD SWAP1 PUSH2 0x178A SWAP2 SWAP1 PUSH2 0x1FFE JUMP JUMPDEST SWAP2 POP SWAP2 POP PUSH1 0x0 DUP4 PUSH2 0x179F JUMPI DUP2 DUP4 PUSH1 0x0 SUB PUSH2 0x17A5 JUMP JUMPDEST DUP3 DUP3 PUSH1 0x0 SUB JUMPDEST SWAP1 SWAP9 POP SWAP1 POP PUSH1 0x1 PUSH1 0x1 PUSH1 0xA0 SHL SUB DUP11 AND PUSH2 0x17C4 JUMPI DUP12 DUP2 EQ PUSH2 0x17C4 JUMPI PUSH1 0x0 DUP1 REVERT JUMPDEST POP POP POP POP POP POP POP SWAP5 SWAP4 POP POP POP POP JUMP JUMPDEST PUSH1 0x60 PUSH2 0x146E DUP3 PUSH1 0x0 PUSH1 0x2B PUSH2 0x1C92 JUMP JUMPDEST PUSH1 0x40 DUP1 MLOAD PUSH1 0x1 PUSH1 0x1 PUSH1 0xA0 SHL SUB DUP5 DUP2 AND PUSH1 0x24 DUP4 ADD MSTORE PUSH1 0x44 DUP1 DUP4 ADD DUP6 SWAP1 MSTORE DUP4 MLOAD DUP1 DUP5 SUB SWAP1 SWAP2 ADD DUP2 MSTORE PUSH1 0x64 SWAP1 SWAP3 ADD DUP4 MSTORE PUSH1 0x20 DUP3 ADD DUP1 MLOAD PUSH1 0x1 PUSH1 0x1 PUSH1 0xE0 SHL SUB AND PUSH4 0xA9059CBB PUSH1 0xE0 SHL OR DUP2 MSTORE SWAP3 MLOAD DUP3 MLOAD PUSH1 0x0 SWAP5 DUP6 SWAP5 SWAP4 DUP10 AND SWAP4 SWAP3 SWAP2 DUP3 SWAP2 SWAP1 DUP1 DUP4 DUP4 JUMPDEST PUSH1 0x20 DUP4 LT PUSH2 0x185E JUMPI DUP1 MLOAD DUP3 MSTORE PUSH1 0x1F NOT SWAP1 SWAP3 ADD SWAP2 PUSH1 0x20 SWAP2 DUP3 ADD SWAP2 ADD PUSH2 0x183F JUMP JUMPDEST PUSH1 0x1 DUP4 PUSH1 0x20 SUB PUSH2 0x100 EXP SUB DUP1 NOT DUP3 MLOAD AND DUP2 DUP5 MLOAD AND DUP1 DUP3 OR DUP6 MSTORE POP POP POP POP POP POP SWAP1 POP ADD SWAP2 POP POP PUSH1 0x0 PUSH1 0x40 MLOAD DUP1 DUP4 SUB DUP2 PUSH1 0x0 DUP7 GAS CALL SWAP2 POP POP RETURNDATASIZE DUP1 PUSH1 0x0 DUP2 EQ PUSH2 0x18C0 JUMPI PUSH1 0x40 MLOAD SWAP2 POP PUSH1 0x1F NOT PUSH1 0x3F RETURNDATASIZE ADD AND DUP3 ADD PUSH1 0x40 MSTORE RETURNDATASIZE DUP3 MSTORE RETURNDATASIZE PUSH1 0x0 PUSH1 0x20 DUP5 ADD RETURNDATACOPY PUSH2 0x18C5 JUMP JUMPDEST PUSH1 0x60 SWAP2 POP JUMPDEST POP SWAP2 POP SWAP2 POP DUP2 DUP1 ISZERO PUSH2 0x18F3 JUMPI POP DUP1 MLOAD ISZERO DUP1 PUSH2 0x18F3 JUMPI POP DUP1 DUP1 PUSH1 0x20 ADD SWAP1 MLOAD PUSH1 0x20 DUP2 LT ISZERO PUSH2 0x18F0 JUMPI PUSH1 0x0 DUP1 REVERT JUMPDEST POP MLOAD JUMPDEST PUSH2 0x826 JUMPI PUSH1 0x40 DUP1 MLOAD PUSH3 0x461BCD PUSH1 0xE5 SHL DUP2 MSTORE PUSH1 0x20 PUSH1 0x4 DUP3 ADD MSTORE PUSH1 0x2 PUSH1 0x24 DUP3 ADD MSTORE PUSH2 0x14D5 PUSH1 0xF2 SHL PUSH1 0x44 DUP3 ADD MSTORE SWAP1 MLOAD SWAP1 DUP2 SWAP1 SUB PUSH1 0x64 ADD SWAP1 REVERT JUMPDEST PUSH1 0x0 DUP1 PUSH32 0x0 PUSH1 0x1 PUSH1 0x1 PUSH1 0xA0 SHL SUB AND PUSH4 0x1698EE82 DUP7 DUP7 DUP7 PUSH1 0x40 MLOAD DUP5 PUSH4 0xFFFFFFFF AND PUSH1 0xE0 SHL DUP2 MSTORE PUSH1 0x4 ADD PUSH2 0x197C SWAP4 SWAP3 SWAP2 SWAP1 PUSH2 0x23BB JUMP JUMPDEST PUSH1 0x20 PUSH1 0x40 MLOAD DUP1 DUP4 SUB DUP2 DUP7 DUP1 EXTCODESIZE ISZERO DUP1 ISZERO PUSH2 0x1994 JUMPI PUSH1 0x0 DUP1 REVERT JUMPDEST POP GAS STATICCALL ISZERO DUP1 ISZERO PUSH2 0x19A8 JUMPI RETURNDATASIZE PUSH1 0x0 DUP1 RETURNDATACOPY RETURNDATASIZE PUSH1 0x0 REVERT JUMPDEST POP POP POP POP PUSH1 0x40 MLOAD RETURNDATASIZE PUSH1 0x1F NOT PUSH1 0x1F DUP3 ADD AND DUP3 ADD DUP1 PUSH1 0x40 MSTORE POP DUP2 ADD SWAP1 PUSH2 0x19CC SWAP2 SWAP1 PUSH2 0x1E74 JUMP JUMPDEST SWAP6 SWAP5 POP POP POP POP POP JUMP JUMPDEST PUSH1 0x0 PUSH1 0x1 PUSH1 0xFF SHL DUP3 LT PUSH2 0x19E7 JUMPI PUSH1 0x0 DUP1 REVERT JUMPDEST POP SWAP1 JUMP JUMPDEST PUSH1 0x0 DUP2 DUP3 PUSH1 0x14 ADD LT ISZERO PUSH2 0x1A3A JUMPI PUSH1 0x40 DUP1 MLOAD PUSH3 0x461BCD PUSH1 0xE5 SHL DUP2 MSTORE PUSH1 0x20 PUSH1 0x4 DUP3 ADD MSTORE PUSH1 0x12 PUSH1 0x24 DUP3 ADD MSTORE PUSH18 0x746F416464726573735F6F766572666C6F77 PUSH1 0x70 SHL PUSH1 0x44 DUP3 ADD MSTORE SWAP1 MLOAD SWAP1 DUP2 SWAP1 SUB PUSH1 0x64 ADD SWAP1 REVERT JUMPDEST DUP2 PUSH1 0x14 ADD DUP4 MLOAD LT ISZERO PUSH2 0x1A8B JUMPI PUSH1 0x40 DUP1 MLOAD PUSH3 0x461BCD PUSH1 0xE5 SHL DUP2 MSTORE PUSH1 0x20 PUSH1 0x4 DUP3 ADD MSTORE PUSH1 0x15 PUSH1 0x24 DUP3 ADD MSTORE PUSH21 0x746F416464726573735F6F75744F66426F756E6473 PUSH1 0x58 SHL PUSH1 0x44 DUP3 ADD MSTORE SWAP1 MLOAD SWAP1 DUP2 SWAP1 SUB PUSH1 0x64 ADD SWAP1 REVERT JUMPDEST POP ADD PUSH1 0x20 ADD MLOAD PUSH1 0x1 PUSH1 0x60 SHL SWAP1 DIV SWAP1 JUMP JUMPDEST PUSH1 0x0 DUP2 DUP3 PUSH1 0x3 ADD LT ISZERO PUSH2 0x1AE9 JUMPI PUSH1 0x40 DUP1 MLOAD PUSH3 0x461BCD PUSH1 0xE5 SHL DUP2 MSTORE PUSH1 0x20 PUSH1 0x4 DUP3 ADD MSTORE PUSH1 0x11 PUSH1 0x24 DUP3 ADD MSTORE PUSH17 0x746F55696E7432345F6F766572666C6F77 PUSH1 0x78 SHL PUSH1 0x44 DUP3 ADD MSTORE SWAP1 MLOAD SWAP1 DUP2 SWAP1 SUB PUSH1 0x64 ADD SWAP1 REVERT JUMPDEST DUP2 PUSH1 0x3 ADD DUP4 MLOAD LT ISZERO PUSH2 0x1B39 JUMPI PUSH1 0x40 DUP1 MLOAD PUSH3 0x461BCD PUSH1 0xE5 SHL DUP2 MSTORE PUSH1 0x20 PUSH1 0x4 DUP3 ADD MSTORE PUSH1 0x14 PUSH1 0x24 DUP3 ADD MSTORE PUSH20 0x746F55696E7432345F6F75744F66426F756E6473 PUSH1 0x60 SHL PUSH1 0x44 DUP3 ADD MSTORE SWAP1 MLOAD SWAP1 DUP2 SWAP1 SUB PUSH1 0x64 ADD SWAP1 REVERT JUMPDEST POP ADD PUSH1 0x3 ADD MLOAD SWAP1 JUMP JUMPDEST PUSH1 0x40 DUP1 MLOAD PUSH1 0x1 PUSH1 0x1 PUSH1 0xA0 SHL SUB DUP6 DUP2 AND PUSH1 0x24 DUP4 ADD MSTORE DUP5 DUP2 AND PUSH1 0x44 DUP4 ADD MSTORE PUSH1 0x64 DUP1 DUP4 ADD DUP6 SWAP1 MSTORE DUP4 MLOAD DUP1 DUP5 SUB SWAP1 SWAP2 ADD DUP2 MSTORE PUSH1 0x84 SWAP1 SWAP3 ADD DUP4 MSTORE PUSH1 0x20 DUP3 ADD DUP1 MLOAD PUSH1 0x1 PUSH1 0x1 PUSH1 0xE0 SHL SUB AND PUSH4 0x23B872DD PUSH1 0xE0 SHL OR DUP2 MSTORE SWAP3 MLOAD DUP3 MLOAD PUSH1 0x0 SWAP5 DUP6 SWAP5 SWAP4 DUP11 AND SWAP4 SWAP3 SWAP2 DUP3 SWAP2 SWAP1 DUP1 DUP4 DUP4 JUMPDEST PUSH1 0x20 DUP4 LT PUSH2 0x1BC6 JUMPI DUP1 MLOAD DUP3 MSTORE PUSH1 0x1F NOT SWAP1 SWAP3 ADD SWAP2 PUSH1 0x20 SWAP2 DUP3 ADD SWAP2 ADD PUSH2 0x1BA7 JUMP JUMPDEST PUSH1 0x1 DUP4 PUSH1 0x20 SUB PUSH2 0x100 EXP SUB DUP1 NOT DUP3 MLOAD AND DUP2 DUP5 MLOAD AND DUP1 DUP3 OR DUP6 MSTORE POP POP POP POP POP POP SWAP1 POP ADD SWAP2 POP POP PUSH1 0x0 PUSH1 0x40 MLOAD DUP1 DUP4 SUB DUP2 PUSH1 0x0 DUP7 GAS CALL SWAP2 POP POP RETURNDATASIZE DUP1 PUSH1 0x0 DUP2 EQ PUSH2 0x1C28 JUMPI PUSH1 0x40 MLOAD SWAP2 POP PUSH1 0x1F NOT PUSH1 0x3F RETURNDATASIZE ADD AND DUP3 ADD PUSH1 0x40 MSTORE RETURNDATASIZE DUP3 MSTORE RETURNDATASIZE PUSH1 0x0 PUSH1 0x20 DUP5 ADD RETURNDATACOPY PUSH2 0x1C2D JUMP JUMPDEST PUSH1 0x60 SWAP2 POP JUMPDEST POP SWAP2 POP SWAP2 POP DUP2 DUP1 ISZERO PUSH2 0x1C5B JUMPI POP DUP1 MLOAD ISZERO DUP1 PUSH2 0x1C5B JUMPI POP DUP1 DUP1 PUSH1 0x20 ADD SWAP1 MLOAD PUSH1 0x20 DUP2 LT ISZERO PUSH2 0x1C58 JUMPI PUSH1 0x0 DUP1 REVERT JUMPDEST POP MLOAD JUMPDEST PUSH2 0x824 JUMPI PUSH1 0x40 DUP1 MLOAD PUSH3 0x461BCD PUSH1 0xE5 SHL DUP2 MSTORE PUSH1 0x20 PUSH1 0x4 DUP3 ADD MSTORE PUSH1 0x3 PUSH1 0x24 DUP3 ADD MSTORE PUSH3 0x29AA23 PUSH1 0xE9 SHL PUSH1 0x44 DUP3 ADD MSTORE SWAP1 MLOAD SWAP1 DUP2 SWAP1 SUB PUSH1 0x64 ADD SWAP1 REVERT JUMPDEST PUSH1 0x60 DUP2 DUP3 PUSH1 0x1F ADD LT ISZERO PUSH2 0x1CDD JUMPI PUSH1 0x40 DUP1 MLOAD PUSH3 0x461BCD PUSH1 0xE5 SHL DUP2 MSTORE PUSH1 0x20 PUSH1 0x4 DUP3 ADD MSTORE PUSH1 0xE PUSH1 0x24 DUP3 ADD MSTORE PUSH14 0x736C6963655F6F766572666C6F77 PUSH1 0x90 SHL PUSH1 0x44 DUP3 ADD MSTORE SWAP1 MLOAD SWAP1 DUP2 SWAP1 SUB PUSH1 0x64 ADD SWAP1 REVERT JUMPDEST DUP3 DUP3 DUP5 ADD LT ISZERO PUSH2 0x1D25 JUMPI PUSH1 0x40 DUP1 MLOAD PUSH3 0x461BCD PUSH1 0xE5 SHL DUP2 MSTORE PUSH1 0x20 PUSH1 0x4 DUP3 ADD MSTORE PUSH1 0xE PUSH1 0x24 DUP3 ADD MSTORE PUSH14 0x736C6963655F6F766572666C6F77 PUSH1 0x90 SHL PUSH1 0x44 DUP3 ADD MSTORE SWAP1 MLOAD SWAP1 DUP2 SWAP1 SUB PUSH1 0x64 ADD SWAP1 REVERT JUMPDEST DUP2 DUP4 ADD DUP5 MLOAD LT ISZERO PUSH2 0x1D71 JUMPI PUSH1 0x40 DUP1 MLOAD PUSH3 0x461BCD PUSH1 0xE5 SHL DUP2 MSTORE PUSH1 0x20 PUSH1 0x4 DUP3 ADD MSTORE PUSH1 0x11 PUSH1 0x24 DUP3 ADD MSTORE PUSH17 0x736C6963655F6F75744F66426F756E6473 PUSH1 0x78 SHL PUSH1 0x44 DUP3 ADD MSTORE SWAP1 MLOAD SWAP1 DUP2 SWAP1 SUB PUSH1 0x64 ADD SWAP1 REVERT JUMPDEST PUSH1 0x60 DUP3 ISZERO DUP1 ISZERO PUSH2 0x1D90 JUMPI PUSH1 0x40 MLOAD SWAP2 POP PUSH1 0x0 DUP3 MSTORE PUSH1 0x20 DUP3 ADD PUSH1 0x40 MSTORE PUSH2 0x1DDA JUMP JUMPDEST PUSH1 0x40 MLOAD SWAP2 POP PUSH1 0x1F DUP5 AND DUP1 ISZERO PUSH1 0x20 MUL DUP2 DUP5 ADD ADD DUP6 DUP2 ADD DUP8 DUP4 ISZERO PUSH1 0x20 MUL DUP5 DUP12 ADD ADD ADD JUMPDEST DUP2 DUP4 LT ISZERO PUSH2 0x1DC9 JUMPI DUP1 MLOAD DUP4 MSTORE PUSH1 0x20 SWAP3 DUP4 ADD SWAP3 ADD PUSH2 0x1DB1 JUMP JUMPDEST POP POP DUP6 DUP5 MSTORE PUSH1 0x1F ADD PUSH1 0x1F NOT AND PUSH1 0x40 MSTORE POP JUMPDEST POP SWAP5 SWAP4 POP POP POP POP JUMP JUMPDEST DUP1 CALLDATALOAD PUSH2 0x163C DUP2 PUSH2 0x25F9 JUMP JUMPDEST PUSH1 0x0 DUP3 PUSH1 0x1F DUP4 ADD SLT PUSH2 0x1DFE JUMPI DUP1 DUP2 REVERT JUMPDEST DUP2 CALLDATALOAD PUSH2 0x1E11 PUSH2 0x1E0C DUP3 PUSH2 0x25AB JUMP JUMPDEST PUSH2 0x2587 JUMP JUMPDEST DUP2 DUP2 MSTORE DUP5 PUSH1 0x20 DUP4 DUP7 ADD ADD GT ISZERO PUSH2 0x1E25 JUMPI DUP3 DUP4 REVERT JUMPDEST DUP2 PUSH1 0x20 DUP6 ADD PUSH1 0x20 DUP4 ADD CALLDATACOPY SWAP1 DUP2 ADD PUSH1 0x20 ADD SWAP2 SWAP1 SWAP2 MSTORE SWAP3 SWAP2 POP POP JUMP JUMPDEST PUSH1 0x0 PUSH2 0x100 DUP3 DUP5 SUB SLT ISZERO PUSH2 0x423 JUMPI DUP1 DUP2 REVERT JUMPDEST PUSH1 0x0 PUSH1 0x20 DUP3 DUP5 SUB SLT ISZERO PUSH2 0x1E62 JUMPI DUP1 DUP2 REVERT JUMPDEST DUP2 CALLDATALOAD PUSH2 0x1E6D DUP2 PUSH2 0x25F9 JUMP JUMPDEST SWAP4 SWAP3 POP POP POP JUMP JUMPDEST PUSH1 0x0 PUSH1 0x20 DUP3 DUP5 SUB SLT ISZERO PUSH2 0x1E85 JUMPI DUP1 DUP2 REVERT JUMPDEST DUP2 MLOAD PUSH2 0x1E6D DUP2 PUSH2 0x25F9 JUMP JUMPDEST PUSH1 0x0 DUP1 PUSH1 0x0 PUSH1 0x60 DUP5 DUP7 SUB SLT ISZERO PUSH2 0x1EA4 JUMPI DUP2 DUP3 REVERT JUMPDEST DUP4 CALLDATALOAD PUSH2 0x1EAF DUP2 PUSH2 0x25F9 JUMP JUMPDEST SWAP3 POP PUSH1 0x20 DUP5 ADD CALLDATALOAD SWAP2 POP PUSH1 0x40 DUP5 ADD CALLDATALOAD PUSH2 0x1EC6 DUP2 PUSH2 0x25F9 JUMP JUMPDEST DUP1 SWAP2 POP POP SWAP3 POP SWAP3 POP SWAP3 JUMP JUMPDEST PUSH1 0x0 DUP1 PUSH1 0x0 DUP1 PUSH1 0x0 PUSH1 0xA0 DUP7 DUP9 SUB SLT ISZERO PUSH2 0x1EE8 JUMPI DUP1 DUP2 REVERT JUMPDEST DUP6 CALLDATALOAD PUSH2 0x1EF3 DUP2 PUSH2 0x25F9 JUMP JUMPDEST SWAP5 POP PUSH1 0x20 DUP7 ADD CALLDATALOAD SWAP4 POP PUSH1 0x40 DUP7 ADD CALLDATALOAD PUSH2 0x1F0A DUP2 PUSH2 0x25F9 JUMP JUMPDEST SWAP3 POP PUSH1 0x60 DUP7 ADD CALLDATALOAD SWAP2 POP PUSH1 0x80 DUP7 ADD CALLDATALOAD PUSH2 0x1F21 DUP2 PUSH2 0x25F9 JUMP JUMPDEST DUP1 SWAP2 POP POP SWAP3 SWAP6 POP SWAP3 SWAP6 SWAP1 SWAP4 POP JUMP JUMPDEST PUSH1 0x0 DUP1 PUSH1 0x0 DUP1 PUSH1 0x0 DUP1 PUSH1 0xC0 DUP8 DUP10 SUB SLT ISZERO PUSH2 0x1F47 JUMPI DUP1 DUP2 REVERT JUMPDEST DUP7 CALLDATALOAD PUSH2 0x1F52 DUP2 PUSH2 0x25F9 JUMP JUMPDEST SWAP6 POP PUSH1 0x20 DUP8 ADD CALLDATALOAD SWAP5 POP PUSH1 0x40 DUP8 ADD CALLDATALOAD SWAP4 POP PUSH1 0x60 DUP8 ADD CALLDATALOAD PUSH1 0xFF DUP2 AND DUP2 EQ PUSH2 0x1F75 JUMPI DUP2 DUP3 REVERT JUMPDEST SWAP6 SWAP9 SWAP5 SWAP8 POP SWAP3 SWAP6 PUSH1 0x80 DUP2 ADD CALLDATALOAD SWAP5 PUSH1 0xA0 SWAP1 SWAP2 ADD CALLDATALOAD SWAP4 POP SWAP2 POP POP JUMP JUMPDEST PUSH1 0x0 DUP1 PUSH1 0x20 DUP4 DUP6 SUB SLT ISZERO PUSH2 0x1FA1 JUMPI DUP2 DUP3 REVERT JUMPDEST DUP3 CALLDATALOAD PUSH8 0xFFFFFFFFFFFFFFFF DUP1 DUP3 GT ISZERO PUSH2 0x1FB8 JUMPI DUP4 DUP5 REVERT JUMPDEST DUP2 DUP6 ADD SWAP2 POP DUP6 PUSH1 0x1F DUP4 ADD SLT PUSH2 0x1FCB JUMPI DUP4 DUP5 REVERT JUMPDEST DUP2 CALLDATALOAD DUP2 DUP2 GT ISZERO PUSH2 0x1FD9 JUMPI DUP5 DUP6 REVERT JUMPDEST DUP7 PUSH1 0x20 DUP1 DUP4 MUL DUP6 ADD ADD GT ISZERO PUSH2 0x1FEC JUMPI DUP5 DUP6 REVERT JUMPDEST PUSH1 0x20 SWAP3 SWAP1 SWAP3 ADD SWAP7 SWAP2 SWAP6 POP SWAP1 SWAP4 POP POP POP POP JUMP JUMPDEST PUSH1 0x0 DUP1 PUSH1 0x40 DUP4 DUP6 SUB SLT ISZERO PUSH2 0x2010 JUMPI DUP2 DUP3 REVERT JUMPDEST POP POP DUP1 MLOAD PUSH1 0x20 SWAP1 SWAP2 ADD MLOAD SWAP1 SWAP3 SWAP1 SWAP2 POP JUMP JUMPDEST PUSH1 0x0 DUP1 PUSH1 0x0 DUP1 PUSH1 0x60 DUP6 DUP8 SUB SLT ISZERO PUSH2 0x2036 JUMPI DUP2 DUP3 REVERT JUMPDEST DUP5 CALLDATALOAD SWAP4 POP PUSH1 0x20 DUP6 ADD CALLDATALOAD SWAP3 POP PUSH1 0x40 DUP6 ADD CALLDATALOAD PUSH8 0xFFFFFFFFFFFFFFFF DUP1 DUP3 GT ISZERO PUSH2 0x205B JUMPI DUP4 DUP5 REVERT JUMPDEST DUP2 DUP8 ADD SWAP2 POP DUP8 PUSH1 0x1F DUP4 ADD SLT PUSH2 0x206E JUMPI DUP4 DUP5 REVERT JUMPDEST DUP2 CALLDATALOAD DUP2 DUP2 GT ISZERO PUSH2 0x207C JUMPI DUP5 DUP6 REVERT JUMPDEST DUP9 PUSH1 0x20 DUP3 DUP6 ADD ADD GT ISZERO PUSH2 0x208D JUMPI DUP5 DUP6 REVERT JUMPDEST SWAP6 SWAP9 SWAP5 SWAP8 POP POP PUSH1 0x20 ADD SWAP5 POP POP POP JUMP JUMPDEST PUSH1 0x0 PUSH1 0x20 DUP3 DUP5 SUB SLT ISZERO PUSH2 0x20AD JUMPI DUP1 DUP2 REVERT JUMPDEST DUP2 MLOAD PUSH8 0xFFFFFFFFFFFFFFFF DUP2 GT ISZERO PUSH2 0x20C3 JUMPI DUP2 DUP3 REVERT JUMPDEST DUP3 ADD PUSH1 0x1F DUP2 ADD DUP5 SGT PUSH2 0x20D3 JUMPI DUP2 DUP3 REVERT JUMPDEST DUP1 MLOAD PUSH2 0x20E1 PUSH2 0x1E0C DUP3 PUSH2 0x25AB JUMP JUMPDEST DUP2 DUP2 MSTORE DUP6 PUSH1 0x20 DUP4 DUP6 ADD ADD GT ISZERO PUSH2 0x20F5 JUMPI DUP4 DUP5 REVERT JUMPDEST PUSH2 0x19CC DUP3 PUSH1 0x20 DUP4 ADD PUSH1 0x20 DUP7 ADD PUSH2 0x25CD JUMP JUMPDEST PUSH1 0x0 PUSH1 0x20 DUP3 DUP5 SUB SLT ISZERO PUSH2 0x2117 JUMPI DUP1 DUP2 REVERT JUMPDEST DUP2 CALLDATALOAD PUSH8 0xFFFFFFFFFFFFFFFF DUP1 DUP3 GT ISZERO PUSH2 0x212E JUMPI DUP3 DUP4 REVERT JUMPDEST SWAP1 DUP4 ADD SWAP1 PUSH1 0xA0 DUP3 DUP7 SUB SLT ISZERO PUSH2 0x2141 JUMPI DUP3 DUP4 REVERT JUMPDEST PUSH1 0x40 MLOAD PUSH1 0xA0 DUP2 ADD DUP2 DUP2 LT DUP4 DUP3 GT OR ISZERO PUSH2 0x2156 JUMPI INVALID JUMPDEST PUSH1 0x40 MSTORE DUP3 CALLDATALOAD DUP3 DUP2 GT ISZERO PUSH2 0x2167 JUMPI DUP5 DUP6 REVERT JUMPDEST PUSH2 0x2173 DUP8 DUP3 DUP7 ADD PUSH2 0x1DEE JUMP JUMPDEST DUP3 MSTORE POP PUSH2 0x2182 PUSH1 0x20 DUP5 ADD PUSH2 0x1DE3 JUMP JUMPDEST PUSH1 0x20 DUP3 ADD MSTORE PUSH1 0x40 DUP4 ADD CALLDATALOAD PUSH1 0x40 DUP3 ADD MSTORE PUSH1 0x60 DUP4 ADD CALLDATALOAD PUSH1 0x60 DUP3 ADD MSTORE PUSH1 0x80 DUP4 ADD CALLDATALOAD PUSH1 0x80 DUP3 ADD MSTORE DUP1 SWAP4 POP POP POP POP SWAP3 SWAP2 POP POP JUMP JUMPDEST PUSH1 0x0 PUSH2 0x100 DUP3 DUP5 SUB SLT ISZERO PUSH2 0x21C3 JUMPI DUP1 DUP2 REVERT JUMPDEST PUSH2 0x1E6D DUP4 DUP4 PUSH2 0x1E3F JUMP JUMPDEST PUSH1 0x0 PUSH1 0x20 DUP3 DUP5 SUB SLT ISZERO PUSH2 0x21DE JUMPI DUP1 DUP2 REVERT JUMPDEST DUP2 CALLDATALOAD PUSH8 0xFFFFFFFFFFFFFFFF DUP2 GT ISZERO PUSH2 0x21F4 JUMPI DUP2 DUP3 REVERT JUMPDEST DUP3 ADD PUSH1 0xA0 DUP2 DUP6 SUB SLT ISZERO PUSH2 0x1E6D JUMPI DUP2 DUP3 REVERT JUMPDEST PUSH1 0x0 PUSH1 0x20 DUP3 DUP5 SUB SLT ISZERO PUSH2 0x2216 JUMPI DUP1 DUP2 REVERT JUMPDEST DUP2 CALLDATALOAD PUSH8 0xFFFFFFFFFFFFFFFF DUP1 DUP3 GT ISZERO PUSH2 0x222D JUMPI DUP3 DUP4 REVERT JUMPDEST SWAP1 DUP4 ADD SWAP1 PUSH1 0x40 DUP3 DUP7 SUB SLT ISZERO PUSH2 0x2240 JUMPI DUP3 DUP4 REVERT JUMPDEST PUSH1 0x40 MLOAD PUSH1 0x40 DUP2 ADD DUP2 DUP2 LT DUP4 DUP3 GT OR ISZERO PUSH2 0x2255 JUMPI INVALID JUMPDEST PUSH1 0x40 MSTORE DUP3 CALLDATALOAD DUP3 DUP2 GT ISZERO PUSH2 0x2266 JUMPI DUP5 DUP6 REVERT JUMPDEST PUSH2 0x2272 DUP8 DUP3 DUP7 ADD PUSH2 0x1DEE JUMP JUMPDEST DUP3 MSTORE POP PUSH1 0x20 DUP4 ADD CALLDATALOAD SWAP3 POP PUSH2 0x2285 DUP4 PUSH2 0x25F9 JUMP JUMPDEST PUSH1 0x20 DUP2 ADD SWAP3 SWAP1 SWAP3 MSTORE POP SWAP4 SWAP3 POP POP POP JUMP JUMPDEST PUSH1 0x0 PUSH1 0x20 DUP3 DUP5 SUB SLT ISZERO PUSH2 0x22A6 JUMPI DUP1 DUP2 REVERT JUMPDEST DUP2 CALLDATALOAD PUSH3 0xFFFFFF DUP2 AND DUP2 EQ PUSH2 0x1E6D JUMPI DUP2 DUP3 REVERT JUMPDEST PUSH1 0x0 DUP1 PUSH1 0x40 DUP4 DUP6 SUB SLT ISZERO PUSH2 0x22CA JUMPI DUP2 DUP3 REVERT JUMPDEST DUP3 CALLDATALOAD SWAP2 POP PUSH1 0x20 DUP4 ADD CALLDATALOAD PUSH2 0x22DC DUP2 PUSH2 0x25F9 JUMP JUMPDEST DUP1 SWAP2 POP POP SWAP3 POP SWAP3 SWAP1 POP JUMP JUMPDEST PUSH1 0x0 DUP1 PUSH1 0x0 DUP1 PUSH1 0x80 DUP6 DUP8 SUB SLT ISZERO PUSH2 0x22FC JUMPI DUP2 DUP3 REVERT JUMPDEST DUP5 CALLDATALOAD SWAP4 POP PUSH1 0x20 DUP6 ADD CALLDATALOAD PUSH2 0x230E DUP2 PUSH2 0x25F9 JUMP JUMPDEST SWAP3 POP PUSH1 0x40 DUP6 ADD CALLDATALOAD SWAP2 POP PUSH1 0x60 DUP6 ADD CALLDATALOAD PUSH2 0x2325 DUP2 PUSH2 0x25F9 JUMP JUMPDEST SWAP4 SWAP7 SWAP3 SWAP6 POP SWAP1 SWAP4 POP POP JUMP JUMPDEST PUSH1 0x0 DUP2 MLOAD DUP1 DUP5 MSTORE PUSH2 0x2348 DUP2 PUSH1 0x20 DUP7 ADD PUSH1 0x20 DUP7 ADD PUSH2 0x25CD JUMP JUMPDEST PUSH1 0x1F ADD PUSH1 0x1F NOT AND SWAP3 SWAP1 SWAP3 ADD PUSH1 0x20 ADD SWAP3 SWAP2 POP POP JUMP JUMPDEST PUSH1 0x60 SWAP4 DUP5 SHL PUSH12 0xFFFFFFFFFFFFFFFFFFFFFFFF NOT SWAP1 DUP2 AND DUP3 MSTORE PUSH1 0xE8 SWAP4 SWAP1 SWAP4 SHL PUSH1 0x1 PUSH1 0x1 PUSH1 0xE8 SHL SUB NOT AND PUSH1 0x14 DUP3 ADD MSTORE SWAP3 SHL AND PUSH1 0x17 DUP3 ADD MSTORE PUSH1 0x2B ADD SWAP1 JUMP JUMPDEST PUSH1 0x0 DUP3 DUP5 DUP4 CALLDATACOPY SWAP2 ADD SWAP1 DUP2 MSTORE SWAP2 SWAP1 POP JUMP JUMPDEST PUSH1 0x1 PUSH1 0x1 PUSH1 0xA0 SHL SUB SWAP2 SWAP1 SWAP2 AND DUP2 MSTORE PUSH1 0x20 ADD SWAP1 JUMP JUMPDEST PUSH1 0x1 PUSH1 0x1 PUSH1 0xA0 SHL SUB SWAP4 DUP5 AND DUP2 MSTORE SWAP2 SWAP1 SWAP3 AND PUSH1 0x20 DUP3 ADD MSTORE PUSH3 0xFFFFFF SWAP1 SWAP2 AND PUSH1 0x40 DUP3 ADD MSTORE PUSH1 0x60 ADD SWAP1 JUMP JUMPDEST PUSH1 0x1 PUSH1 0x1 PUSH1 0xA0 SHL SUB DUP7 DUP2 AND DUP3 MSTORE DUP6 ISZERO ISZERO PUSH1 0x20 DUP4 ADD MSTORE PUSH1 0x40 DUP3 ADD DUP6 SWAP1 MSTORE DUP4 AND PUSH1 0x60 DUP3 ADD MSTORE PUSH1 0xA0 PUSH1 0x80 DUP3 ADD DUP2 SWAP1 MSTORE PUSH1 0x0 SWAP1 PUSH2 0x241E SWAP1 DUP4 ADD DUP5 PUSH2 0x2330 JUMP JUMPDEST SWAP8 SWAP7 POP POP POP POP POP POP POP JUMP JUMPDEST PUSH1 0x0 PUSH1 0x20 DUP1 DUP4 ADD DUP2 DUP5 MSTORE DUP1 DUP6 MLOAD DUP1 DUP4 MSTORE PUSH1 0x40 DUP7 ADD SWAP2 POP PUSH1 0x40 DUP5 DUP3 MUL DUP8 ADD ADD SWAP3 POP DUP4 DUP8 ADD DUP6 JUMPDEST DUP3 DUP2 LT ISZERO PUSH2 0x247C JUMPI PUSH1 0x3F NOT DUP9 DUP7 SUB ADD DUP5 MSTORE PUSH2 0x246A DUP6 DUP4 MLOAD PUSH2 0x2330 JUMP JUMPDEST SWAP5 POP SWAP3 DUP6 ADD SWAP3 SWAP1 DUP6 ADD SWAP1 PUSH1 0x1 ADD PUSH2 0x244E JUMP JUMPDEST POP SWAP3 SWAP8 SWAP7 POP POP POP POP POP POP POP JUMP JUMPDEST PUSH1 0x0 PUSH1 0x20 DUP3 MSTORE PUSH2 0x1E6D PUSH1 0x20 DUP4 ADD DUP5 PUSH2 0x2330 JUMP JUMPDEST PUSH1 0x20 DUP1 DUP3 MSTORE PUSH1 0x12 SWAP1 DUP3 ADD MSTORE PUSH18 0x151BDBC81B5D58DA081C995C5D595CDD1959 PUSH1 0x72 SHL PUSH1 0x40 DUP3 ADD MSTORE PUSH1 0x60 ADD SWAP1 JUMP JUMPDEST PUSH1 0x20 DUP1 DUP3 MSTORE PUSH1 0x13 SWAP1 DUP3 ADD MSTORE PUSH19 0x151BDBC81B1A5D1D1B19481C9958D95A5D9959 PUSH1 0x6A SHL PUSH1 0x40 DUP3 ADD MSTORE PUSH1 0x60 ADD SWAP1 JUMP JUMPDEST PUSH1 0x0 PUSH1 0x20 DUP3 MSTORE DUP3 MLOAD PUSH1 0x40 PUSH1 0x20 DUP5 ADD MSTORE PUSH2 0x2511 PUSH1 0x60 DUP5 ADD DUP3 PUSH2 0x2330 JUMP JUMPDEST PUSH1 0x20 SWAP5 SWAP1 SWAP5 ADD MLOAD PUSH1 0x1 PUSH1 0x1 PUSH1 0xA0 SHL SUB AND PUSH1 0x40 SWAP4 SWAP1 SWAP4 ADD SWAP3 SWAP1 SWAP3 MSTORE POP SWAP1 SWAP2 SWAP1 POP JUMP JUMPDEST SWAP1 DUP2 MSTORE PUSH1 0x20 ADD SWAP1 JUMP JUMPDEST PUSH1 0x0 DUP1 DUP4 CALLDATALOAD PUSH1 0x1E NOT DUP5 CALLDATASIZE SUB ADD DUP2 SLT PUSH2 0x2551 JUMPI DUP3 DUP4 REVERT JUMPDEST DUP4 ADD DUP1 CALLDATALOAD SWAP2 POP PUSH8 0xFFFFFFFFFFFFFFFF DUP3 GT ISZERO PUSH2 0x256B JUMPI DUP3 DUP4 REVERT JUMPDEST PUSH1 0x20 ADD SWAP2 POP CALLDATASIZE DUP2 SWAP1 SUB DUP3 SGT ISZERO PUSH2 0x2580 JUMPI PUSH1 0x0 DUP1 REVERT JUMPDEST SWAP3 POP SWAP3 SWAP1 POP JUMP JUMPDEST PUSH1 0x40 MLOAD DUP2 DUP2 ADD PUSH8 0xFFFFFFFFFFFFFFFF DUP2 GT DUP3 DUP3 LT OR ISZERO PUSH2 0x25A3 JUMPI INVALID JUMPDEST PUSH1 0x40 MSTORE SWAP2 SWAP1 POP JUMP JUMPDEST PUSH1 0x0 PUSH8 0xFFFFFFFFFFFFFFFF DUP3 GT ISZERO PUSH2 0x25BF JUMPI INVALID JUMPDEST POP PUSH1 0x1F ADD PUSH1 0x1F NOT AND PUSH1 0x20 ADD SWAP1 JUMP JUMPDEST PUSH1 0x0 JUMPDEST DUP4 DUP2 LT ISZERO PUSH2 0x25E8 JUMPI DUP2 DUP2 ADD MLOAD DUP4 DUP3 ADD MSTORE PUSH1 0x20 ADD PUSH2 0x25D0 JUMP JUMPDEST DUP4 DUP2 GT ISZERO PUSH2 0xF70 JUMPI POP POP PUSH1 0x0 SWAP2 ADD MSTORE JUMP JUMPDEST PUSH1 0x1 PUSH1 0x1 PUSH1 0xA0 SHL SUB DUP2 AND DUP2 EQ PUSH2 0x260E JUMPI PUSH1 0x0 DUP1 REVERT JUMPDEST POP JUMP INVALID LOG2 PUSH5 0x6970667358 0x22 SLT KECCAK256 MOD 0xB1 0xA7 0xC4 SAR 0x22 DUP14 SAR CALL PUSH3 0x76DDB6 PUSH3 0xCD7586 0x5F MUL CHAINID 0xA6 0xCF PUSH20 0xB07E51DCC765CD99C264736F6C63430007060033 "
		},
		"gasEstimates": {
			"creation": {
				"codeDepositCost": "1959800",
				"executionCost": "infinite",
				"totalCost": "infinite"
			},
			"external": {
				"PixpelSwapV3SwapCallback(int256,int256,bytes)": "infinite",
				"WETH9()": "infinite",
				"exactInput((bytes,address,uint256,uint256,uint256))": "infinite",
				"exactInputSingle((address,address,uint24,address,uint256,uint256,uint256,uint160))": "infinite",
				"exactOutput((bytes,address,uint256,uint256,uint256))": "infinite",
				"exactOutputSingle((address,address,uint24,address,uint256,uint256,uint256,uint160))": "infinite",
				"factory()": "infinite",
				"multicall(bytes[])": "infinite",
				"refundETH()": "infinite",
				"selfPermit(address,uint256,uint256,uint8,bytes32,bytes32)": "infinite",
				"selfPermitAllowed(address,uint256,uint256,uint8,bytes32,bytes32)": "infinite",
				"selfPermitAllowedIfNecessary(address,uint256,uint256,uint8,bytes32,bytes32)": "infinite",
				"selfPermitIfNecessary(address,uint256,uint256,uint8,bytes32,bytes32)": "infinite",
				"sweepToken(address,uint256,address)": "infinite",
				"sweepTokenWithFee(address,uint256,address,uint256,address)": "infinite",
				"unwrapWETH9(uint256,address)": "infinite",
				"unwrapWETH9WithFee(uint256,address,uint256,address)": "infinite"
			},
			"internal": {
				"exactInputInternal(uint256,address,uint160,struct SwapRouter.SwapCallbackData memory)": "infinite",
				"exactOutputInternal(uint256,address,uint160,struct SwapRouter.SwapCallbackData memory)": "infinite",
				"getPool(address,address,uint24)": "infinite"
			}
		},
		"methodIdentifiers": {
			"PixpelSwapV3SwapCallback(int256,int256,bytes)": "ad62311c",
			"WETH9()": "4aa4a4fc",
			"exactInput((bytes,address,uint256,uint256,uint256))": "c04b8d59",
			"exactInputSingle((address,address,uint24,address,uint256,uint256,uint256,uint160))": "414bf389",
			"exactOutput((bytes,address,uint256,uint256,uint256))": "f28c0498",
			"exactOutputSingle((address,address,uint24,address,uint256,uint256,uint256,uint160))": "db3e2198",
			"factory()": "c45a0155",
			"multicall(bytes[])": "ac9650d8",
			"refundETH()": "12210e8a",
			"selfPermit(address,uint256,uint256,uint8,bytes32,bytes32)": "f3995c67",
			"selfPermitAllowed(address,uint256,uint256,uint8,bytes32,bytes32)": "4659a494",
			"selfPermitAllowedIfNecessary(address,uint256,uint256,uint8,bytes32,bytes32)": "a4a78f0c",
			"selfPermitIfNecessary(address,uint256,uint256,uint8,bytes32,bytes32)": "c2e3140a",
			"sweepToken(address,uint256,address)": "df2ab5bb",
			"sweepTokenWithFee(address,uint256,address,uint256,address)": "e0e189a0",
			"unwrapWETH9(uint256,address)": "49404b7c",
			"unwrapWETH9WithFee(uint256,address,uint256,address)": "9b2c0a37"
		}
	},
	"abi": [
		{
			"inputs": [
				{
					"internalType": "address",
					"name": "_factory",
					"type": "address"
				},
				{
					"internalType": "address",
					"name": "_WETH9",
					"type": "address"
				}
			],
			"stateMutability": "nonpayable",
			"type": "constructor"
		},
		{
			"inputs": [
				{
					"internalType": "int256",
					"name": "amount0Delta",
					"type": "int256"
				},
				{
					"internalType": "int256",
					"name": "amount1Delta",
					"type": "int256"
				},
				{
					"internalType": "bytes",
					"name": "_data",
					"type": "bytes"
				}
			],
			"name": "PixpelSwapV3SwapCallback",
			"outputs": [],
			"stateMutability": "nonpayable",
			"type": "function"
		},
		{
			"inputs": [],
			"name": "WETH9",
			"outputs": [
				{
					"internalType": "address",
					"name": "",
					"type": "address"
				}
			],
			"stateMutability": "view",
			"type": "function"
		},
		{
			"inputs": [
				{
					"components": [
						{
							"internalType": "bytes",
							"name": "path",
							"type": "bytes"
						},
						{
							"internalType": "address",
							"name": "recipient",
							"type": "address"
						},
						{
							"internalType": "uint256",
							"name": "deadline",
							"type": "uint256"
						},
						{
							"internalType": "uint256",
							"name": "amountIn",
							"type": "uint256"
						},
						{
							"internalType": "uint256",
							"name": "amountOutMinimum",
							"type": "uint256"
						}
					],
					"internalType": "struct ISwapRouter.ExactInputParams",
					"name": "params",
					"type": "tuple"
				}
			],
			"name": "exactInput",
			"outputs": [
				{
					"internalType": "uint256",
					"name": "amountOut",
					"type": "uint256"
				}
			],
			"stateMutability": "payable",
			"type": "function"
		},
		{
			"inputs": [
				{
					"components": [
						{
							"internalType": "address",
							"name": "tokenIn",
							"type": "address"
						},
						{
							"internalType": "address",
							"name": "tokenOut",
							"type": "address"
						},
						{
							"internalType": "uint24",
							"name": "fee",
							"type": "uint24"
						},
						{
							"internalType": "address",
							"name": "recipient",
							"type": "address"
						},
						{
							"internalType": "uint256",
							"name": "deadline",
							"type": "uint256"
						},
						{
							"internalType": "uint256",
							"name": "amountIn",
							"type": "uint256"
						},
						{
							"internalType": "uint256",
							"name": "amountOutMinimum",
							"type": "uint256"
						},
						{
							"internalType": "uint160",
							"name": "sqrtPriceLimitX96",
							"type": "uint160"
						}
					],
					"internalType": "struct ISwapRouter.ExactInputSingleParams",
					"name": "params",
					"type": "tuple"
				}
			],
			"name": "exactInputSingle",
			"outputs": [
				{
					"internalType": "uint256",
					"name": "amountOut",
					"type": "uint256"
				}
			],
			"stateMutability": "payable",
			"type": "function"
		},
		{
			"inputs": [
				{
					"components": [
						{
							"internalType": "bytes",
							"name": "path",
							"type": "bytes"
						},
						{
							"internalType": "address",
							"name": "recipient",
							"type": "address"
						},
						{
							"internalType": "uint256",
							"name": "deadline",
							"type": "uint256"
						},
						{
							"internalType": "uint256",
							"name": "amountOut",
							"type": "uint256"
						},
						{
							"internalType": "uint256",
							"name": "amountInMaximum",
							"type": "uint256"
						}
					],
					"internalType": "struct ISwapRouter.ExactOutputParams",
					"name": "params",
					"type": "tuple"
				}
			],
			"name": "exactOutput",
			"outputs": [
				{
					"internalType": "uint256",
					"name": "amountIn",
					"type": "uint256"
				}
			],
			"stateMutability": "payable",
			"type": "function"
		},
		{
			"inputs": [
				{
					"components": [
						{
							"internalType": "address",
							"name": "tokenIn",
							"type": "address"
						},
						{
							"internalType": "address",
							"name": "tokenOut",
							"type": "address"
						},
						{
							"internalType": "uint24",
							"name": "fee",
							"type": "uint24"
						},
						{
							"internalType": "address",
							"name": "recipient",
							"type": "address"
						},
						{
							"internalType": "uint256",
							"name": "deadline",
							"type": "uint256"
						},
						{
							"internalType": "uint256",
							"name": "amountOut",
							"type": "uint256"
						},
						{
							"internalType": "uint256",
							"name": "amountInMaximum",
							"type": "uint256"
						},
						{
							"internalType": "uint160",
							"name": "sqrtPriceLimitX96",
							"type": "uint160"
						}
					],
					"internalType": "struct ISwapRouter.ExactOutputSingleParams",
					"name": "params",
					"type": "tuple"
				}
			],
			"name": "exactOutputSingle",
			"outputs": [
				{
					"internalType": "uint256",
					"name": "amountIn",
					"type": "uint256"
				}
			],
			"stateMutability": "payable",
			"type": "function"
		},
		{
			"inputs": [],
			"name": "factory",
			"outputs": [
				{
					"internalType": "address",
					"name": "",
					"type": "address"
				}
			],
			"stateMutability": "view",
			"type": "function"
		},
		{
			"inputs": [
				{
					"internalType": "bytes[]",
					"name": "data",
					"type": "bytes[]"
				}
			],
			"name": "multicall",
			"outputs": [
				{
					"internalType": "bytes[]",
					"name": "results",
					"type": "bytes[]"
				}
			],
			"stateMutability": "payable",
			"type": "function"
		},
		{
			"inputs": [],
			"name": "refundETH",
			"outputs": [],
			"stateMutability": "payable",
			"type": "function"
		},
		{
			"inputs": [
				{
					"internalType": "address",
					"name": "token",
					"type": "address"
				},
				{
					"internalType": "uint256",
					"name": "value",
					"type": "uint256"
				},
				{
					"internalType": "uint256",
					"name": "deadline",
					"type": "uint256"
				},
				{
					"internalType": "uint8",
					"name": "v",
					"type": "uint8"
				},
				{
					"internalType": "bytes32",
					"name": "r",
					"type": "bytes32"
				},
				{
					"internalType": "bytes32",
					"name": "s",
					"type": "bytes32"
				}
			],
			"name": "selfPermit",
			"outputs": [],
			"stateMutability": "payable",
			"type": "function"
		},
		{
			"inputs": [
				{
					"internalType": "address",
					"name": "token",
					"type": "address"
				},
				{
					"internalType": "uint256",
					"name": "nonce",
					"type": "uint256"
				},
				{
					"internalType": "uint256",
					"name": "expiry",
					"type": "uint256"
				},
				{
					"internalType": "uint8",
					"name": "v",
					"type": "uint8"
				},
				{
					"internalType": "bytes32",
					"name": "r",
					"type": "bytes32"
				},
				{
					"internalType": "bytes32",
					"name": "s",
					"type": "bytes32"
				}
			],
			"name": "selfPermitAllowed",
			"outputs": [],
			"stateMutability": "payable",
			"type": "function"
		},
		{
			"inputs": [
				{
					"internalType": "address",
					"name": "token",
					"type": "address"
				},
				{
					"internalType": "uint256",
					"name": "nonce",
					"type": "uint256"
				},
				{
					"internalType": "uint256",
					"name": "expiry",
					"type": "uint256"
				},
				{
					"internalType": "uint8",
					"name": "v",
					"type": "uint8"
				},
				{
					"internalType": "bytes32",
					"name": "r",
					"type": "bytes32"
				},
				{
					"internalType": "bytes32",
					"name": "s",
					"type": "bytes32"
				}
			],
			"name": "selfPermitAllowedIfNecessary",
			"outputs": [],
			"stateMutability": "payable",
			"type": "function"
		},
		{
			"inputs": [
				{
					"internalType": "address",
					"name": "token",
					"type": "address"
				},
				{
					"internalType": "uint256",
					"name": "value",
					"type": "uint256"
				},
				{
					"internalType": "uint256",
					"name": "deadline",
					"type": "uint256"
				},
				{
					"internalType": "uint8",
					"name": "v",
					"type": "uint8"
				},
				{
					"internalType": "bytes32",
					"name": "r",
					"type": "bytes32"
				},
				{
					"internalType": "bytes32",
					"name": "s",
					"type": "bytes32"
				}
			],
			"name": "selfPermitIfNecessary",
			"outputs": [],
			"stateMutability": "payable",
			"type": "function"
		},
		{
			"inputs": [
				{
					"internalType": "address",
					"name": "token",
					"type": "address"
				},
				{
					"internalType": "uint256",
					"name": "amountMinimum",
					"type": "uint256"
				},
				{
					"internalType": "address",
					"name": "recipient",
					"type": "address"
				}
			],
			"name": "sweepToken",
			"outputs": [],
			"stateMutability": "payable",
			"type": "function"
		},
		{
			"inputs": [
				{
					"internalType": "address",
					"name": "token",
					"type": "address"
				},
				{
					"internalType": "uint256",
					"name": "amountMinimum",
					"type": "uint256"
				},
				{
					"internalType": "address",
					"name": "recipient",
					"type": "address"
				},
				{
					"internalType": "uint256",
					"name": "feeBips",
					"type": "uint256"
				},
				{
					"internalType": "address",
					"name": "feeRecipient",
					"type": "address"
				}
			],
			"name": "sweepTokenWithFee",
			"outputs": [],
			"stateMutability": "payable",
			"type": "function"
		},
		{
			"inputs": [
				{
					"internalType": "uint256",
					"name": "amountMinimum",
					"type": "uint256"
				},
				{
					"internalType": "address",
					"name": "recipient",
					"type": "address"
				}
			],
			"name": "unwrapWETH9",
			"outputs": [],
			"stateMutability": "payable",
			"type": "function"
		},
		{
			"inputs": [
				{
					"internalType": "uint256",
					"name": "amountMinimum",
					"type": "uint256"
				},
				{
					"internalType": "address",
					"name": "recipient",
					"type": "address"
				},
				{
					"internalType": "uint256",
					"name": "feeBips",
					"type": "uint256"
				},
				{
					"internalType": "address",
					"name": "feeRecipient",
					"type": "address"
				}
			],
			"name": "unwrapWETH9WithFee",
			"outputs": [],
			"stateMutability": "payable",
			"type": "function"
		},
		{
			"stateMutability": "payable",
			"type": "receive"
		}
	]
}