{
	"data": {
		"bytecode": {
			"linkReferences": {
				"remix/positionDescriptor/NFTDescriptor.sol": {
					"NFTDescriptor": [
						{
							"length": 20,
							"start": 1320
						}
					]
				}
			},
			"object": "60a060405234801561001057600080fd5b5060405161126838038061126883398101604081905261002f91610044565b60601b6001600160601b031916608052610072565b600060208284031215610055578081fd5b81516001600160a01b038116811461006b578182fd5b9392505050565b60805160601c6111d56100936000398060d1528061011652506111d56000f3fe608060405234801561001057600080fd5b506004361061004c5760003560e01c80634aa4a4fc146100515780637e5af7711461006f5780639d7b0ea81461008f578063e9dc6375146100af575b600080fd5b6100596100cf565b6040516100669190610fd6565b60405180910390f35b61008261007d366004610cdc565b6100f3565b6040516100669190611012565b6100a261009d366004610d1c565b610112565b604051610066919061101d565b6100c26100bd366004610d1c565b610257565b6040516100669190611026565b7f000000000000000000000000000000000000000000000000000000000000000081565b60006100ff8383610112565b6101098584610112565b13949350505050565b60007f00000000000000000000000000000000000000000000000000000000000000006001600160a01b0316836001600160a01b031614156101575750606319610251565b816001141561024d576001600160a01b03831673a0b86991c6218b36c1d19d4a2e9eb0ce3606eb48141561018e575061012c610251565b6001600160a01b03831673dac17f958d2ee523a2206206994597c13d831ec714156101bb575060c8610251565b6001600160a01b038316736b175474e89094c44da98b954eedeac495271d0f14156101e857506064610251565b6001600160a01b038316738daebade922df735c38c80c7ebd708af50815faa1415610216575060c719610251565b6001600160a01b038316732260fac5e5542a773aa44fbcfedf7c193bc2c5991415610245575061012b19610251565b506000610251565b5060005b92915050565b60606000806000806000876001600160a01b03166399fbab88886040518263ffffffff1660e01b815260040161028d919061101d565b6101806040518083038186803b1580156102a657600080fd5b505afa1580156102ba573d6000803e3d6000fd5b505050506040513d601f19601f820116820180604052508101906102de9190610ea1565b50505050509650965096509650965050506000886001600160a01b031663c45a01556040518163ffffffff1660e01b815260040160206040518083038186803b15801561032a57600080fd5b505afa15801561033e573d6000803e3d6000fd5b505050506040513d601f19601f820116820180604052508101906103629190610cb9565b6001600160a01b0316631698ee828787876040518463ffffffff1660e01b815260040161039193929190610fea565b60206040518083038186803b1580156103a957600080fd5b505afa1580156103bd573d6000803e3d6000fd5b505050506040513d601f19601f820116820180604052508101906103e19190610cb9565b905060006103f2878761007d610720565b9050600081156104025787610404565b865b9050600082156104145787610416565b885b90506000846001600160a01b0316633850c7bd6040518163ffffffff1660e01b815260040160e06040518083038186803b15801561045357600080fd5b505afa158015610467573d6000803e3d6000fd5b505050506040513d601f19601f8201168201806040525081019061048b9190610df8565b505050505091505073__$616b8287df98bd1b3f7bea22527b878594$__63c49917d7604051806101c001604052808f8152602001866001600160a01b03168152602001856001600160a01b031681526020016104e687610724565b81526020016104f486610724565b8152602001866001600160a01b031663313ce5676040518163ffffffff1660e01b815260040160206040518083038186803b15801561053257600080fd5b505afa158015610546573d6000803e3d6000fd5b505050506040513d601f19601f8201168201806040525081019061056a9190610e87565b60ff168152602001856001600160a01b031663313ce5676040518163ffffffff1660e01b815260040160206040518083038186803b1580156105ab57600080fd5b505afa1580156105bf573d6000803e3d6000fd5b505050506040513d601f19601f820116820180604052508101906105e39190610e87565b60ff16815260200187151581526020018a60020b81526020018960020b81526020018460020b8152602001886001600160a01b031663d0c93a7c6040518163ffffffff1660e01b815260040160206040518083038186803b15801561064757600080fd5b505afa15801561065b573d6000803e3d6000fd5b505050506040513d601f19601f8201168201806040525081019061067f9190610d47565b60020b81526020018b62ffffff168152602001886001600160a01b03168152506040518263ffffffff1660e01b81526004016106bb9190611039565b60006040518083038186803b1580156106d357600080fd5b505af41580156106e7573d6000803e3d6000fd5b505050506040513d6000823e601f3d908101601f1916820160405261070f9190810190610d61565b9d9c50505050505050505050505050565b4690565b60606000610739836395d89b4160e01b61075e565b90508051600014156107565761074e83610986565b915050610759565b90505b919050565b60408051600481526024810182526020810180516001600160e01b03166001600160e01b031985161781529151815160609360009384936001600160a01b03891693919290918291908083835b602083106107ca5780518252601f1990920191602091820191016107ab565b6001836020036101000a038019825116818451168082178552505050505050905001915050600060405180830381855afa9150503d806000811461082a576040519150601f19603f3d011682016040523d82523d6000602084013e61082f565b606091505b509150915081158061084057508051155b1561085e576040518060200160405280600081525092505050610251565b80516020141561089657600081806020019051602081101561087f57600080fd5b5051905061088c81610993565b9350505050610251565b60408151111561096e578080602001905160208110156108b557600080fd5b81019080805160405193929190846401000000008211156108d557600080fd5b9083019060208201858111156108ea57600080fd5b825164010000000081118282018810171561090457600080fd5b82525081516020918201929091019080838360005b83811015610931578181015183820152602001610919565b50505050905090810190601f16801561095e5780820380516001836020036101000a031916815260200191505b5060405250505092505050610251565b50506040805160208101909152600081529392505050565b6060610756826006610abb565b604080516020808252818301909252606091600091906020820181803683370190505090506000805b6020811015610a1d5760008582602081106109d357fe5b1a60f81b90506001600160f81b0319811615610a1457808484815181106109f657fe5b60200101906001600160f81b031916908160001a9053506001909201915b506001016109bc565b5060008167ffffffffffffffff81118015610a3757600080fd5b506040519080825280601f01601f191660200182016040528015610a62576020820181803683370190505b50905060005b82811015610ab257838181518110610a7c57fe5b602001015160f81c60f81b828281518110610a9357fe5b60200101906001600160f81b031916908160001a905350600101610a68565b50949350505050565b606060028206158015610ace5750600082115b8015610adb575060288211155b610b2c576040805162461bcd60e51b815260206004820152601e60248201527f41646472657373537472696e675574696c3a20494e56414c49445f4c454e0000604482015290519081900360640190fd5b60008267ffffffffffffffff81118015610b4557600080fd5b506040519080825280601f01601f191660200182016040528015610b70576020820181803683370190505b5090506001600160a01b03841660005b60028504811015610c1457600860138290030282901c600f600482901c1660f082168203610bad82610c1e565b868560020281518110610bbc57fe5b60200101906001600160f81b031916908160001a905350610bdc81610c1e565b868560020260010181518110610bee57fe5b60200101906001600160f81b031916908160001a9053505060019092019150610b809050565b5090949350505050565b6000600a8260ff161015610c3957506030810160f81b610759565b506037810160f81b610759565b805161075981611187565b8051600281900b811461075957600080fd5b80516fffffffffffffffffffffffffffffffff8116811461075957600080fd5b805161ffff8116811461075957600080fd5b805162ffffff8116811461075957600080fd5b805160ff8116811461075957600080fd5b600060208284031215610cca578081fd5b8151610cd581611187565b9392505050565b600080600060608486031215610cf0578182fd5b8335610cfb81611187565b92506020840135610d0b81611187565b929592945050506040919091013590565b60008060408385031215610d2e578182fd5b8235610d3981611187565b946020939093013593505050565b600060208284031215610d58578081fd5b610cd582610c51565b600060208284031215610d72578081fd5b815167ffffffffffffffff80821115610d89578283fd5b818401915084601f830112610d9c578283fd5b815181811115610da857fe5b604051601f8201601f191681016020018381118282101715610dc657fe5b604052818152838201602001871015610ddd578485fd5b610dee826020830160208701611157565b9695505050505050565b600080600080600080600060e0888a031215610e12578283fd5b8751610e1d81611187565b9650610e2b60208901610c51565b9550610e3960408901610c83565b9450610e4760608901610c83565b9350610e5560808901610c83565b9250610e6360a08901610ca8565b915060c08801518015158114610e77578182fd5b8091505092959891949750929550565b600060208284031215610e98578081fd5b610cd582610ca8565b6000806000806000806000806000806000806101808d8f031215610ec3578485fd5b8c516bffffffffffffffffffffffff81168114610ede578586fd5b9b50610eec60208e01610c46565b9a50610efa60408e01610c46565b9950610f0860608e01610c46565b9850610f1660808e01610c95565b9750610f2460a08e01610c51565b9650610f3260c08e01610c51565b9550610f4060e08e01610c63565b94506101008d015193506101208d01519250610f5f6101408e01610c63565b9150610f6e6101608e01610c63565b90509295989b509295989b509295989b565b6001600160a01b03169052565b15159052565b60020b9052565b60008151808452610fb2816020860160208601611157565b601f01601f19169290920160200192915050565b62ffffff169052565b60ff169052565b6001600160a01b0391909116815260200190565b6001600160a01b03938416815291909216602082015262ffffff909116604082015260600190565b901515815260200190565b90815260200190565b600060208252610cd56020830184610f9a565b6000602082528251602083015260208301516110586040840182610f80565b50604083015161106b6060840182610f80565b5060608301516101c08060808501526110886101e0850183610f9a565b91506080850151601f198584030160a08601526110a58382610f9a565b92505060a08501516110ba60c0860182610fcf565b5060c08501516110cd60e0860182610fcf565b5060e08501516101006110e281870183610f8d565b86015190506101206110f686820183610f93565b860151905061014061110a86820183610f93565b860151905061016061111e86820183610f93565b860151905061018061113286820183610f93565b86015190506101a061114686820183610fc6565b8601519050610c1485830182610f80565b60005b8381101561117257818101518382015260200161115a565b83811115611181576000848401525b50505050565b6001600160a01b038116811461119c57600080fd5b5056fea2646970667358221220926d92848c4cdbf9bf23720403e2c35e7d9fbafd13a7ced5248f9f241d092aa764736f6c63430007060033",
			"opcodes": "PUSH1 0xA0 PUSH1 0x40 MSTORE CALLVALUE DUP1 ISZERO PUSH2 0x10 JUMPI PUSH1 0x0 DUP1 REVERT JUMPDEST POP PUSH1 0x40 MLOAD PUSH2 0x1268 CODESIZE SUB DUP1 PUSH2 0x1268 DUP4 CODECOPY DUP2 ADD PUSH1 0x40 DUP2 SWAP1 MSTORE PUSH2 0x2F SWAP2 PUSH2 0x44 JUMP JUMPDEST PUSH1 0x60 SHL PUSH1 0x1 PUSH1 0x1 PUSH1 0x60 SHL SUB NOT AND PUSH1 0x80 MSTORE PUSH2 0x72 JUMP JUMPDEST PUSH1 0x0 PUSH1 0x20 DUP3 DUP5 SUB SLT ISZERO PUSH2 0x55 JUMPI DUP1 DUP2 REVERT JUMPDEST DUP2 MLOAD PUSH1 0x1 PUSH1 0x1 PUSH1 0xA0 SHL SUB DUP2 AND DUP2 EQ PUSH2 0x6B JUMPI DUP2 DUP3 REVERT JUMPDEST SWAP4 SWAP3 POP POP POP JUMP JUMPDEST PUSH1 0x80 MLOAD PUSH1 0x60 SHR PUSH2 0x11D5 PUSH2 0x93 PUSH1 0x0 CODECOPY DUP1 PUSH1 0xD1 MSTORE DUP1 PUSH2 0x116 MSTORE POP PUSH2 0x11D5 PUSH1 0x0 RETURN INVALID PUSH1 0x80 PUSH1 0x40 MSTORE CALLVALUE DUP1 ISZERO PUSH2 0x10 JUMPI PUSH1 0x0 DUP1 REVERT JUMPDEST POP PUSH1 0x4 CALLDATASIZE LT PUSH2 0x4C JUMPI PUSH1 0x0 CALLDATALOAD PUSH1 0xE0 SHR DUP1 PUSH4 0x4AA4A4FC EQ PUSH2 0x51 JUMPI DUP1 PUSH4 0x7E5AF771 EQ PUSH2 0x6F JUMPI DUP1 PUSH4 0x9D7B0EA8 EQ PUSH2 0x8F JUMPI DUP1 PUSH4 0xE9DC6375 EQ PUSH2 0xAF JUMPI JUMPDEST PUSH1 0x0 DUP1 REVERT JUMPDEST PUSH2 0x59 PUSH2 0xCF JUMP JUMPDEST PUSH1 0x40 MLOAD PUSH2 0x66 SWAP2 SWAP1 PUSH2 0xFD6 JUMP JUMPDEST PUSH1 0x40 MLOAD DUP1 SWAP2 SUB SWAP1 RETURN JUMPDEST PUSH2 0x82 PUSH2 0x7D CALLDATASIZE PUSH1 0x4 PUSH2 0xCDC JUMP JUMPDEST PUSH2 0xF3 JUMP JUMPDEST PUSH1 0x40 MLOAD PUSH2 0x66 SWAP2 SWAP1 PUSH2 0x1012 JUMP JUMPDEST PUSH2 0xA2 PUSH2 0x9D CALLDATASIZE PUSH1 0x4 PUSH2 0xD1C JUMP JUMPDEST PUSH2 0x112 JUMP JUMPDEST PUSH1 0x40 MLOAD PUSH2 0x66 SWAP2 SWAP1 PUSH2 0x101D JUMP JUMPDEST PUSH2 0xC2 PUSH2 0xBD CALLDATASIZE PUSH1 0x4 PUSH2 0xD1C JUMP JUMPDEST PUSH2 0x257 JUMP JUMPDEST PUSH1 0x40 MLOAD PUSH2 0x66 SWAP2 SWAP1 PUSH2 0x1026 JUMP JUMPDEST PUSH32 0x0 DUP2 JUMP JUMPDEST PUSH1 0x0 PUSH2 0xFF DUP4 DUP4 PUSH2 0x112 JUMP JUMPDEST PUSH2 0x109 DUP6 DUP5 PUSH2 0x112 JUMP JUMPDEST SGT SWAP5 SWAP4 POP POP POP POP JUMP JUMPDEST PUSH1 0x0 PUSH32 0x0 PUSH1 0x1 PUSH1 0x1 PUSH1 0xA0 SHL SUB AND DUP4 PUSH1 0x1 PUSH1 0x1 PUSH1 0xA0 SHL SUB AND EQ ISZERO PUSH2 0x157 JUMPI POP PUSH1 0x63 NOT PUSH2 0x251 JUMP JUMPDEST DUP2 PUSH1 0x1 EQ ISZERO PUSH2 0x24D JUMPI PUSH1 0x1 PUSH1 0x1 PUSH1 0xA0 SHL SUB DUP4 AND PUSH20 0xA0B86991C6218B36C1D19D4A2E9EB0CE3606EB48 EQ ISZERO PUSH2 0x18E JUMPI POP PUSH2 0x12C PUSH2 0x251 JUMP JUMPDEST PUSH1 0x1 PUSH1 0x1 PUSH1 0xA0 SHL SUB DUP4 AND PUSH20 0xDAC17F958D2EE523A2206206994597C13D831EC7 EQ ISZERO PUSH2 0x1BB JUMPI POP PUSH1 0xC8 PUSH2 0x251 JUMP JUMPDEST PUSH1 0x1 PUSH1 0x1 PUSH1 0xA0 SHL SUB DUP4 AND PUSH20 0x6B175474E89094C44DA98B954EEDEAC495271D0F EQ ISZERO PUSH2 0x1E8 JUMPI POP PUSH1 0x64 PUSH2 0x251 JUMP JUMPDEST PUSH1 0x1 PUSH1 0x1 PUSH1 0xA0 SHL SUB DUP4 AND PUSH20 0x8DAEBADE922DF735C38C80C7EBD708AF50815FAA EQ ISZERO PUSH2 0x216 JUMPI POP PUSH1 0xC7 NOT PUSH2 0x251 JUMP JUMPDEST PUSH1 0x1 PUSH1 0x1 PUSH1 0xA0 SHL SUB DUP4 AND PUSH20 0x2260FAC5E5542A773AA44FBCFEDF7C193BC2C599 EQ ISZERO PUSH2 0x245 JUMPI POP PUSH2 0x12B NOT PUSH2 0x251 JUMP JUMPDEST POP PUSH1 0x0 PUSH2 0x251 JUMP JUMPDEST POP PUSH1 0x0 JUMPDEST SWAP3 SWAP2 POP POP JUMP JUMPDEST PUSH1 0x60 PUSH1 0x0 DUP1 PUSH1 0x0 DUP1 PUSH1 0x0 DUP8 PUSH1 0x1 PUSH1 0x1 PUSH1 0xA0 SHL SUB AND PUSH4 0x99FBAB88 DUP9 PUSH1 0x40 MLOAD DUP3 PUSH4 0xFFFFFFFF AND PUSH1 0xE0 SHL DUP2 MSTORE PUSH1 0x4 ADD PUSH2 0x28D SWAP2 SWAP1 PUSH2 0x101D JUMP JUMPDEST PUSH2 0x180 PUSH1 0x40 MLOAD DUP1 DUP4 SUB DUP2 DUP7 DUP1 EXTCODESIZE ISZERO DUP1 ISZERO PUSH2 0x2A6 JUMPI PUSH1 0x0 DUP1 REVERT JUMPDEST POP GAS STATICCALL ISZERO DUP1 ISZERO PUSH2 0x2BA JUMPI RETURNDATASIZE PUSH1 0x0 DUP1 RETURNDATACOPY RETURNDATASIZE PUSH1 0x0 REVERT JUMPDEST POP POP POP POP PUSH1 0x40 MLOAD RETURNDATASIZE PUSH1 0x1F NOT PUSH1 0x1F DUP3 ADD AND DUP3 ADD DUP1 PUSH1 0x40 MSTORE POP DUP2 ADD SWAP1 PUSH2 0x2DE SWAP2 SWAP1 PUSH2 0xEA1 JUMP JUMPDEST POP POP POP POP POP SWAP7 POP SWAP7 POP SWAP7 POP SWAP7 POP SWAP7 POP POP POP PUSH1 0x0 DUP9 PUSH1 0x1 PUSH1 0x1 PUSH1 0xA0 SHL SUB AND PUSH4 0xC45A0155 PUSH1 0x40 MLOAD DUP2 PUSH4 0xFFFFFFFF AND PUSH1 0xE0 SHL DUP2 MSTORE PUSH1 0x4 ADD PUSH1 0x20 PUSH1 0x40 MLOAD DUP1 DUP4 SUB DUP2 DUP7 DUP1 EXTCODESIZE ISZERO DUP1 ISZERO PUSH2 0x32A JUMPI PUSH1 0x0 DUP1 REVERT JUMPDEST POP GAS STATICCALL ISZERO DUP1 ISZERO PUSH2 0x33E JUMPI RETURNDATASIZE PUSH1 0x0 DUP1 RETURNDATACOPY RETURNDATASIZE PUSH1 0x0 REVERT JUMPDEST POP POP POP POP PUSH1 0x40 MLOAD RETURNDATASIZE PUSH1 0x1F NOT PUSH1 0x1F DUP3 ADD AND DUP3 ADD DUP1 PUSH1 0x40 MSTORE POP DUP2 ADD SWAP1 PUSH2 0x362 SWAP2 SWAP1 PUSH2 0xCB9 JUMP JUMPDEST PUSH1 0x1 PUSH1 0x1 PUSH1 0xA0 SHL SUB AND PUSH4 0x1698EE82 DUP8 DUP8 DUP8 PUSH1 0x40 MLOAD DUP5 PUSH4 0xFFFFFFFF AND PUSH1 0xE0 SHL DUP2 MSTORE PUSH1 0x4 ADD PUSH2 0x391 SWAP4 SWAP3 SWAP2 SWAP1 PUSH2 0xFEA JUMP JUMPDEST PUSH1 0x20 PUSH1 0x40 MLOAD DUP1 DUP4 SUB DUP2 DUP7 DUP1 EXTCODESIZE ISZERO DUP1 ISZERO PUSH2 0x3A9 JUMPI PUSH1 0x0 DUP1 REVERT JUMPDEST POP GAS STATICCALL ISZERO DUP1 ISZERO PUSH2 0x3BD JUMPI RETURNDATASIZE PUSH1 0x0 DUP1 RETURNDATACOPY RETURNDATASIZE PUSH1 0x0 REVERT JUMPDEST POP POP POP POP PUSH1 0x40 MLOAD RETURNDATASIZE PUSH1 0x1F NOT PUSH1 0x1F DUP3 ADD AND DUP3 ADD DUP1 PUSH1 0x40 MSTORE POP DUP2 ADD SWAP1 PUSH2 0x3E1 SWAP2 SWAP1 PUSH2 0xCB9 JUMP JUMPDEST SWAP1 POP PUSH1 0x0 PUSH2 0x3F2 DUP8 DUP8 PUSH2 0x7D PUSH2 0x720 JUMP JUMPDEST SWAP1 POP PUSH1 0x0 DUP2 ISZERO PUSH2 0x402 JUMPI DUP8 PUSH2 0x404 JUMP JUMPDEST DUP7 JUMPDEST SWAP1 POP PUSH1 0x0 DUP3 ISZERO PUSH2 0x414 JUMPI DUP8 PUSH2 0x416 JUMP JUMPDEST DUP9 JUMPDEST SWAP1 POP PUSH1 0x0 DUP5 PUSH1 0x1 PUSH1 0x1 PUSH1 0xA0 SHL SUB AND PUSH4 0x3850C7BD PUSH1 0x40 MLOAD DUP2 PUSH4 0xFFFFFFFF AND PUSH1 0xE0 SHL DUP2 MSTORE PUSH1 0x4 ADD PUSH1 0xE0 PUSH1 0x40 MLOAD DUP1 DUP4 SUB DUP2 DUP7 DUP1 EXTCODESIZE ISZERO DUP1 ISZERO PUSH2 0x453 JUMPI PUSH1 0x0 DUP1 REVERT JUMPDEST POP GAS STATICCALL ISZERO DUP1 ISZERO PUSH2 0x467 JUMPI RETURNDATASIZE PUSH1 0x0 DUP1 RETURNDATACOPY RETURNDATASIZE PUSH1 0x0 REVERT JUMPDEST POP POP POP POP PUSH1 0x40 MLOAD RETURNDATASIZE PUSH1 0x1F NOT PUSH1 0x1F DUP3 ADD AND DUP3 ADD DUP1 PUSH1 0x40 MSTORE POP DUP2 ADD SWAP1 PUSH2 0x48B SWAP2 SWAP1 PUSH2 0xDF8 JUMP JUMPDEST POP POP POP POP POP SWAP2 POP POP PUSH20 0x0 PUSH4 0xC49917D7 PUSH1 0x40 MLOAD DUP1 PUSH2 0x1C0 ADD PUSH1 0x40 MSTORE DUP1 DUP16 DUP2 MSTORE PUSH1 0x20 ADD DUP7 PUSH1 0x1 PUSH1 0x1 PUSH1 0xA0 SHL SUB AND DUP2 MSTORE PUSH1 0x20 ADD DUP6 PUSH1 0x1 PUSH1 0x1 PUSH1 0xA0 SHL SUB AND DUP2 MSTORE PUSH1 0x20 ADD PUSH2 0x4E6 DUP8 PUSH2 0x724 JUMP JUMPDEST DUP2 MSTORE PUSH1 0x20 ADD PUSH2 0x4F4 DUP7 PUSH2 0x724 JUMP JUMPDEST DUP2 MSTORE PUSH1 0x20 ADD DUP7 PUSH1 0x1 PUSH1 0x1 PUSH1 0xA0 SHL SUB AND PUSH4 0x313CE567 PUSH1 0x40 MLOAD DUP2 PUSH4 0xFFFFFFFF AND PUSH1 0xE0 SHL DUP2 MSTORE PUSH1 0x4 ADD PUSH1 0x20 PUSH1 0x40 MLOAD DUP1 DUP4 SUB DUP2 DUP7 DUP1 EXTCODESIZE ISZERO DUP1 ISZERO PUSH2 0x532 JUMPI PUSH1 0x0 DUP1 REVERT JUMPDEST POP GAS STATICCALL ISZERO DUP1 ISZERO PUSH2 0x546 JUMPI RETURNDATASIZE PUSH1 0x0 DUP1 RETURNDATACOPY RETURNDATASIZE PUSH1 0x0 REVERT JUMPDEST POP POP POP POP PUSH1 0x40 MLOAD RETURNDATASIZE PUSH1 0x1F NOT PUSH1 0x1F DUP3 ADD AND DUP3 ADD DUP1 PUSH1 0x40 MSTORE POP DUP2 ADD SWAP1 PUSH2 0x56A SWAP2 SWAP1 PUSH2 0xE87 JUMP JUMPDEST PUSH1 0xFF AND DUP2 MSTORE PUSH1 0x20 ADD DUP6 PUSH1 0x1 PUSH1 0x1 PUSH1 0xA0 SHL SUB AND PUSH4 0x313CE567 PUSH1 0x40 MLOAD DUP2 PUSH4 0xFFFFFFFF AND PUSH1 0xE0 SHL DUP2 MSTORE PUSH1 0x4 ADD PUSH1 0x20 PUSH1 0x40 MLOAD DUP1 DUP4 SUB DUP2 DUP7 DUP1 EXTCODESIZE ISZERO DUP1 ISZERO PUSH2 0x5AB JUMPI PUSH1 0x0 DUP1 REVERT JUMPDEST POP GAS STATICCALL ISZERO DUP1 ISZERO PUSH2 0x5BF JUMPI RETURNDATASIZE PUSH1 0x0 DUP1 RETURNDATACOPY RETURNDATASIZE PUSH1 0x0 REVERT JUMPDEST POP POP POP POP PUSH1 0x40 MLOAD RETURNDATASIZE PUSH1 0x1F NOT PUSH1 0x1F DUP3 ADD AND DUP3 ADD DUP1 PUSH1 0x40 MSTORE POP DUP2 ADD SWAP1 PUSH2 0x5E3 SWAP2 SWAP1 PUSH2 0xE87 JUMP JUMPDEST PUSH1 0xFF AND DUP2 MSTORE PUSH1 0x20 ADD DUP8 ISZERO ISZERO DUP2 MSTORE PUSH1 0x20 ADD DUP11 PUSH1 0x2 SIGNEXTEND DUP2 MSTORE PUSH1 0x20 ADD DUP10 PUSH1 0x2 SIGNEXTEND DUP2 MSTORE PUSH1 0x20 ADD DUP5 PUSH1 0x2 SIGNEXTEND DUP2 MSTORE PUSH1 0x20 ADD DUP9 PUSH1 0x1 PUSH1 0x1 PUSH1 0xA0 SHL SUB AND PUSH4 0xD0C93A7C PUSH1 0x40 MLOAD DUP2 PUSH4 0xFFFFFFFF AND PUSH1 0xE0 SHL DUP2 MSTORE PUSH1 0x4 ADD PUSH1 0x20 PUSH1 0x40 MLOAD DUP1 DUP4 SUB DUP2 DUP7 DUP1 EXTCODESIZE ISZERO DUP1 ISZERO PUSH2 0x647 JUMPI PUSH1 0x0 DUP1 REVERT JUMPDEST POP GAS STATICCALL ISZERO DUP1 ISZERO PUSH2 0x65B JUMPI RETURNDATASIZE PUSH1 0x0 DUP1 RETURNDATACOPY RETURNDATASIZE PUSH1 0x0 REVERT JUMPDEST POP POP POP POP PUSH1 0x40 MLOAD RETURNDATASIZE PUSH1 0x1F NOT PUSH1 0x1F DUP3 ADD AND DUP3 ADD DUP1 PUSH1 0x40 MSTORE POP DUP2 ADD SWAP1 PUSH2 0x67F SWAP2 SWAP1 PUSH2 0xD47 JUMP JUMPDEST PUSH1 0x2 SIGNEXTEND DUP2 MSTORE PUSH1 0x20 ADD DUP12 PUSH3 0xFFFFFF AND DUP2 MSTORE PUSH1 0x20 ADD DUP9 PUSH1 0x1 PUSH1 0x1 PUSH1 0xA0 SHL SUB AND DUP2 MSTORE POP PUSH1 0x40 MLOAD DUP3 PUSH4 0xFFFFFFFF AND PUSH1 0xE0 SHL DUP2 MSTORE PUSH1 0x4 ADD PUSH2 0x6BB SWAP2 SWAP1 PUSH2 0x1039 JUMP JUMPDEST PUSH1 0x0 PUSH1 0x40 MLOAD DUP1 DUP4 SUB DUP2 DUP7 DUP1 EXTCODESIZE ISZERO DUP1 ISZERO PUSH2 0x6D3 JUMPI PUSH1 0x0 DUP1 REVERT JUMPDEST POP GAS DELEGATECALL ISZERO DUP1 ISZERO PUSH2 0x6E7 JUMPI RETURNDATASIZE PUSH1 0x0 DUP1 RETURNDATACOPY RETURNDATASIZE PUSH1 0x0 REVERT JUMPDEST POP POP POP POP PUSH1 0x40 MLOAD RETURNDATASIZE PUSH1 0x0 DUP3 RETURNDATACOPY PUSH1 0x1F RETURNDATASIZE SWAP1 DUP2 ADD PUSH1 0x1F NOT AND DUP3 ADD PUSH1 0x40 MSTORE PUSH2 0x70F SWAP2 SWAP1 DUP2 ADD SWAP1 PUSH2 0xD61 JUMP JUMPDEST SWAP14 SWAP13 POP POP POP POP POP POP POP POP POP POP POP POP POP JUMP JUMPDEST CHAINID SWAP1 JUMP JUMPDEST PUSH1 0x60 PUSH1 0x0 PUSH2 0x739 DUP4 PUSH4 0x95D89B41 PUSH1 0xE0 SHL PUSH2 0x75E JUMP JUMPDEST SWAP1 POP DUP1 MLOAD PUSH1 0x0 EQ ISZERO PUSH2 0x756 JUMPI PUSH2 0x74E DUP4 PUSH2 0x986 JUMP JUMPDEST SWAP2 POP POP PUSH2 0x759 JUMP JUMPDEST SWAP1 POP JUMPDEST SWAP2 SWAP1 POP JUMP JUMPDEST PUSH1 0x40 DUP1 MLOAD PUSH1 0x4 DUP2 MSTORE PUSH1 0x24 DUP2 ADD DUP3 MSTORE PUSH1 0x20 DUP2 ADD DUP1 MLOAD PUSH1 0x1 PUSH1 0x1 PUSH1 0xE0 SHL SUB AND PUSH1 0x1 PUSH1 0x1 PUSH1 0xE0 SHL SUB NOT DUP6 AND OR DUP2 MSTORE SWAP2 MLOAD DUP2 MLOAD PUSH1 0x60 SWAP4 PUSH1 0x0 SWAP4 DUP5 SWAP4 PUSH1 0x1 PUSH1 0x1 PUSH1 0xA0 SHL SUB DUP10 AND SWAP4 SWAP2 SWAP3 SWAP1 SWAP2 DUP3 SWAP2 SWAP1 DUP1 DUP4 DUP4 JUMPDEST PUSH1 0x20 DUP4 LT PUSH2 0x7CA JUMPI DUP1 MLOAD DUP3 MSTORE PUSH1 0x1F NOT SWAP1 SWAP3 ADD SWAP2 PUSH1 0x20 SWAP2 DUP3 ADD SWAP2 ADD PUSH2 0x7AB JUMP JUMPDEST PUSH1 0x1 DUP4 PUSH1 0x20 SUB PUSH2 0x100 EXP SUB DUP1 NOT DUP3 MLOAD AND DUP2 DUP5 MLOAD AND DUP1 DUP3 OR DUP6 MSTORE POP POP POP POP POP POP SWAP1 POP ADD SWAP2 POP POP PUSH1 0x0 PUSH1 0x40 MLOAD DUP1 DUP4 SUB DUP2 DUP6 GAS STATICCALL SWAP2 POP POP RETURNDATASIZE DUP1 PUSH1 0x0 DUP2 EQ PUSH2 0x82A JUMPI PUSH1 0x40 MLOAD SWAP2 POP PUSH1 0x1F NOT PUSH1 0x3F RETURNDATASIZE ADD AND DUP3 ADD PUSH1 0x40 MSTORE RETURNDATASIZE DUP3 MSTORE RETURNDATASIZE PUSH1 0x0 PUSH1 0x20 DUP5 ADD RETURNDATACOPY PUSH2 0x82F JUMP JUMPDEST PUSH1 0x60 SWAP2 POP JUMPDEST POP SWAP2 POP SWAP2 POP DUP2 ISZERO DUP1 PUSH2 0x840 JUMPI POP DUP1 MLOAD ISZERO JUMPDEST ISZERO PUSH2 0x85E JUMPI PUSH1 0x40 MLOAD DUP1 PUSH1 0x20 ADD PUSH1 0x40 MSTORE DUP1 PUSH1 0x0 DUP2 MSTORE POP SWAP3 POP POP POP PUSH2 0x251 JUMP JUMPDEST DUP1 MLOAD PUSH1 0x20 EQ ISZERO PUSH2 0x896 JUMPI PUSH1 0x0 DUP2 DUP1 PUSH1 0x20 ADD SWAP1 MLOAD PUSH1 0x20 DUP2 LT ISZERO PUSH2 0x87F JUMPI PUSH1 0x0 DUP1 REVERT JUMPDEST POP MLOAD SWAP1 POP PUSH2 0x88C DUP2 PUSH2 0x993 JUMP JUMPDEST SWAP4 POP POP POP POP PUSH2 0x251 JUMP JUMPDEST PUSH1 0x40 DUP2 MLOAD GT ISZERO PUSH2 0x96E JUMPI DUP1 DUP1 PUSH1 0x20 ADD SWAP1 MLOAD PUSH1 0x20 DUP2 LT ISZERO PUSH2 0x8B5 JUMPI PUSH1 0x0 DUP1 REVERT JUMPDEST DUP2 ADD SWAP1 DUP1 DUP1 MLOAD PUSH1 0x40 MLOAD SWAP4 SWAP3 SWAP2 SWAP1 DUP5 PUSH5 0x100000000 DUP3 GT ISZERO PUSH2 0x8D5 JUMPI PUSH1 0x0 DUP1 REVERT JUMPDEST SWAP1 DUP4 ADD SWAP1 PUSH1 0x20 DUP3 ADD DUP6 DUP2 GT ISZERO PUSH2 0x8EA JUMPI PUSH1 0x0 DUP1 REVERT JUMPDEST DUP3 MLOAD PUSH5 0x100000000 DUP2 GT DUP3 DUP3 ADD DUP9 LT OR ISZERO PUSH2 0x904 JUMPI PUSH1 0x0 DUP1 REVERT JUMPDEST DUP3 MSTORE POP DUP2 MLOAD PUSH1 0x20 SWAP2 DUP3 ADD SWAP3 SWAP1 SWAP2 ADD SWAP1 DUP1 DUP4 DUP4 PUSH1 0x0 JUMPDEST DUP4 DUP2 LT ISZERO PUSH2 0x931 JUMPI DUP2 DUP2 ADD MLOAD DUP4 DUP3 ADD MSTORE PUSH1 0x20 ADD PUSH2 0x919 JUMP JUMPDEST POP POP POP POP SWAP1 POP SWAP1 DUP2 ADD SWAP1 PUSH1 0x1F AND DUP1 ISZERO PUSH2 0x95E JUMPI DUP1 DUP3 SUB DUP1 MLOAD PUSH1 0x1 DUP4 PUSH1 0x20 SUB PUSH2 0x100 EXP SUB NOT AND DUP2 MSTORE PUSH1 0x20 ADD SWAP2 POP JUMPDEST POP PUSH1 0x40 MSTORE POP POP POP SWAP3 POP POP POP PUSH2 0x251 JUMP JUMPDEST POP POP PUSH1 0x40 DUP1 MLOAD PUSH1 0x20 DUP2 ADD SWAP1 SWAP2 MSTORE PUSH1 0x0 DUP2 MSTORE SWAP4 SWAP3 POP POP POP JUMP JUMPDEST PUSH1 0x60 PUSH2 0x756 DUP3 PUSH1 0x6 PUSH2 0xABB JUMP JUMPDEST PUSH1 0x40 DUP1 MLOAD PUSH1 0x20 DUP1 DUP3 MSTORE DUP2 DUP4 ADD SWAP1 SWAP3 MSTORE PUSH1 0x60 SWAP2 PUSH1 0x0 SWAP2 SWAP1 PUSH1 0x20 DUP3 ADD DUP2 DUP1 CALLDATASIZE DUP4 CALLDATACOPY ADD SWAP1 POP POP SWAP1 POP PUSH1 0x0 DUP1 JUMPDEST PUSH1 0x20 DUP2 LT ISZERO PUSH2 0xA1D JUMPI PUSH1 0x0 DUP6 DUP3 PUSH1 0x20 DUP2 LT PUSH2 0x9D3 JUMPI INVALID JUMPDEST BYTE PUSH1 0xF8 SHL SWAP1 POP PUSH1 0x1 PUSH1 0x1 PUSH1 0xF8 SHL SUB NOT DUP2 AND ISZERO PUSH2 0xA14 JUMPI DUP1 DUP5 DUP5 DUP2 MLOAD DUP2 LT PUSH2 0x9F6 JUMPI INVALID JUMPDEST PUSH1 0x20 ADD ADD SWAP1 PUSH1 0x1 PUSH1 0x1 PUSH1 0xF8 SHL SUB NOT AND SWAP1 DUP2 PUSH1 0x0 BYTE SWAP1 MSTORE8 POP PUSH1 0x1 SWAP1 SWAP3 ADD SWAP2 JUMPDEST POP PUSH1 0x1 ADD PUSH2 0x9BC JUMP JUMPDEST POP PUSH1 0x0 DUP2 PUSH8 0xFFFFFFFFFFFFFFFF DUP2 GT DUP1 ISZERO PUSH2 0xA37 JUMPI PUSH1 0x0 DUP1 REVERT JUMPDEST POP PUSH1 0x40 MLOAD SWAP1 DUP1 DUP3 MSTORE DUP1 PUSH1 0x1F ADD PUSH1 0x1F NOT AND PUSH1 0x20 ADD DUP3 ADD PUSH1 0x40 MSTORE DUP1 ISZERO PUSH2 0xA62 JUMPI PUSH1 0x20 DUP3 ADD DUP2 DUP1 CALLDATASIZE DUP4 CALLDATACOPY ADD SWAP1 POP JUMPDEST POP SWAP1 POP PUSH1 0x0 JUMPDEST DUP3 DUP2 LT ISZERO PUSH2 0xAB2 JUMPI DUP4 DUP2 DUP2 MLOAD DUP2 LT PUSH2 0xA7C JUMPI INVALID JUMPDEST PUSH1 0x20 ADD ADD MLOAD PUSH1 0xF8 SHR PUSH1 0xF8 SHL DUP3 DUP3 DUP2 MLOAD DUP2 LT PUSH2 0xA93 JUMPI INVALID JUMPDEST PUSH1 0x20 ADD ADD SWAP1 PUSH1 0x1 PUSH1 0x1 PUSH1 0xF8 SHL SUB NOT AND SWAP1 DUP2 PUSH1 0x0 BYTE SWAP1 MSTORE8 POP PUSH1 0x1 ADD PUSH2 0xA68 JUMP JUMPDEST POP SWAP5 SWAP4 POP POP POP POP JUMP JUMPDEST PUSH1 0x60 PUSH1 0x2 DUP3 MOD ISZERO DUP1 ISZERO PUSH2 0xACE JUMPI POP PUSH1 0x0 DUP3 GT JUMPDEST DUP1 ISZERO PUSH2 0xADB JUMPI POP PUSH1 0x28 DUP3 GT ISZERO JUMPDEST PUSH2 0xB2C JUMPI PUSH1 0x40 DUP1 MLOAD PUSH3 0x461BCD PUSH1 0xE5 SHL DUP2 MSTORE PUSH1 0x20 PUSH1 0x4 DUP3 ADD MSTORE PUSH1 0x1E PUSH1 0x24 DUP3 ADD MSTORE PUSH32 0x41646472657373537472696E675574696C3A20494E56414C49445F4C454E0000 PUSH1 0x44 DUP3 ADD MSTORE SWAP1 MLOAD SWAP1 DUP2 SWAP1 SUB PUSH1 0x64 ADD SWAP1 REVERT JUMPDEST PUSH1 0x0 DUP3 PUSH8 0xFFFFFFFFFFFFFFFF DUP2 GT DUP1 ISZERO PUSH2 0xB45 JUMPI PUSH1 0x0 DUP1 REVERT JUMPDEST POP PUSH1 0x40 MLOAD SWAP1 DUP1 DUP3 MSTORE DUP1 PUSH1 0x1F ADD PUSH1 0x1F NOT AND PUSH1 0x20 ADD DUP3 ADD PUSH1 0x40 MSTORE DUP1 ISZERO PUSH2 0xB70 JUMPI PUSH1 0x20 DUP3 ADD DUP2 DUP1 CALLDATASIZE DUP4 CALLDATACOPY ADD SWAP1 POP JUMPDEST POP SWAP1 POP PUSH1 0x1 PUSH1 0x1 PUSH1 0xA0 SHL SUB DUP5 AND PUSH1 0x0 JUMPDEST PUSH1 0x2 DUP6 DIV DUP2 LT ISZERO PUSH2 0xC14 JUMPI PUSH1 0x8 PUSH1 0x13 DUP3 SWAP1 SUB MUL DUP3 SWAP1 SHR PUSH1 0xF PUSH1 0x4 DUP3 SWAP1 SHR AND PUSH1 0xF0 DUP3 AND DUP3 SUB PUSH2 0xBAD DUP3 PUSH2 0xC1E JUMP JUMPDEST DUP7 DUP6 PUSH1 0x2 MUL DUP2 MLOAD DUP2 LT PUSH2 0xBBC JUMPI INVALID JUMPDEST PUSH1 0x20 ADD ADD SWAP1 PUSH1 0x1 PUSH1 0x1 PUSH1 0xF8 SHL SUB NOT AND SWAP1 DUP2 PUSH1 0x0 BYTE SWAP1 MSTORE8 POP PUSH2 0xBDC DUP2 PUSH2 0xC1E JUMP JUMPDEST DUP7 DUP6 PUSH1 0x2 MUL PUSH1 0x1 ADD DUP2 MLOAD DUP2 LT PUSH2 0xBEE JUMPI INVALID JUMPDEST PUSH1 0x20 ADD ADD SWAP1 PUSH1 0x1 PUSH1 0x1 PUSH1 0xF8 SHL SUB NOT AND SWAP1 DUP2 PUSH1 0x0 BYTE SWAP1 MSTORE8 POP POP PUSH1 0x1 SWAP1 SWAP3 ADD SWAP2 POP PUSH2 0xB80 SWAP1 POP JUMP JUMPDEST POP SWAP1 SWAP5 SWAP4 POP POP POP POP JUMP JUMPDEST PUSH1 0x0 PUSH1 0xA DUP3 PUSH1 0xFF AND LT ISZERO PUSH2 0xC39 JUMPI POP PUSH1 0x30 DUP2 ADD PUSH1 0xF8 SHL PUSH2 0x759 JUMP JUMPDEST POP PUSH1 0x37 DUP2 ADD PUSH1 0xF8 SHL PUSH2 0x759 JUMP JUMPDEST DUP1 MLOAD PUSH2 0x759 DUP2 PUSH2 0x1187 JUMP JUMPDEST DUP1 MLOAD PUSH1 0x2 DUP2 SWAP1 SIGNEXTEND DUP2 EQ PUSH2 0x759 JUMPI PUSH1 0x0 DUP1 REVERT JUMPDEST DUP1 MLOAD PUSH16 0xFFFFFFFFFFFFFFFFFFFFFFFFFFFFFFFF DUP2 AND DUP2 EQ PUSH2 0x759 JUMPI PUSH1 0x0 DUP1 REVERT JUMPDEST DUP1 MLOAD PUSH2 0xFFFF DUP2 AND DUP2 EQ PUSH2 0x759 JUMPI PUSH1 0x0 DUP1 REVERT JUMPDEST DUP1 MLOAD PUSH3 0xFFFFFF DUP2 AND DUP2 EQ PUSH2 0x759 JUMPI PUSH1 0x0 DUP1 REVERT JUMPDEST DUP1 MLOAD PUSH1 0xFF DUP2 AND DUP2 EQ PUSH2 0x759 JUMPI PUSH1 0x0 DUP1 REVERT JUMPDEST PUSH1 0x0 PUSH1 0x20 DUP3 DUP5 SUB SLT ISZERO PUSH2 0xCCA JUMPI DUP1 DUP2 REVERT JUMPDEST DUP2 MLOAD PUSH2 0xCD5 DUP2 PUSH2 0x1187 JUMP JUMPDEST SWAP4 SWAP3 POP POP POP JUMP JUMPDEST PUSH1 0x0 DUP1 PUSH1 0x0 PUSH1 0x60 DUP5 DUP7 SUB SLT ISZERO PUSH2 0xCF0 JUMPI DUP2 DUP3 REVERT JUMPDEST DUP4 CALLDATALOAD PUSH2 0xCFB DUP2 PUSH2 0x1187 JUMP JUMPDEST SWAP3 POP PUSH1 0x20 DUP5 ADD CALLDATALOAD PUSH2 0xD0B DUP2 PUSH2 0x1187 JUMP JUMPDEST SWAP3 SWAP6 SWAP3 SWAP5 POP POP POP PUSH1 0x40 SWAP2 SWAP1 SWAP2 ADD CALLDATALOAD SWAP1 JUMP JUMPDEST PUSH1 0x0 DUP1 PUSH1 0x40 DUP4 DUP6 SUB SLT ISZERO PUSH2 0xD2E JUMPI DUP2 DUP3 REVERT JUMPDEST DUP3 CALLDATALOAD PUSH2 0xD39 DUP2 PUSH2 0x1187 JUMP JUMPDEST SWAP5 PUSH1 0x20 SWAP4 SWAP1 SWAP4 ADD CALLDATALOAD SWAP4 POP POP POP JUMP JUMPDEST PUSH1 0x0 PUSH1 0x20 DUP3 DUP5 SUB SLT ISZERO PUSH2 0xD58 JUMPI DUP1 DUP2 REVERT JUMPDEST PUSH2 0xCD5 DUP3 PUSH2 0xC51 JUMP JUMPDEST PUSH1 0x0 PUSH1 0x20 DUP3 DUP5 SUB SLT ISZERO PUSH2 0xD72 JUMPI DUP1 DUP2 REVERT JUMPDEST DUP2 MLOAD PUSH8 0xFFFFFFFFFFFFFFFF DUP1 DUP3 GT ISZERO PUSH2 0xD89 JUMPI DUP3 DUP4 REVERT JUMPDEST DUP2 DUP5 ADD SWAP2 POP DUP5 PUSH1 0x1F DUP4 ADD SLT PUSH2 0xD9C JUMPI DUP3 DUP4 REVERT JUMPDEST DUP2 MLOAD DUP2 DUP2 GT ISZERO PUSH2 0xDA8 JUMPI INVALID JUMPDEST PUSH1 0x40 MLOAD PUSH1 0x1F DUP3 ADD PUSH1 0x1F NOT AND DUP2 ADD PUSH1 0x20 ADD DUP4 DUP2 GT DUP3 DUP3 LT OR ISZERO PUSH2 0xDC6 JUMPI INVALID JUMPDEST PUSH1 0x40 MSTORE DUP2 DUP2 MSTORE DUP4 DUP3 ADD PUSH1 0x20 ADD DUP8 LT ISZERO PUSH2 0xDDD JUMPI DUP5 DUP6 REVERT JUMPDEST PUSH2 0xDEE DUP3 PUSH1 0x20 DUP4 ADD PUSH1 0x20 DUP8 ADD PUSH2 0x1157 JUMP JUMPDEST SWAP7 SWAP6 POP POP POP POP POP POP JUMP JUMPDEST PUSH1 0x0 DUP1 PUSH1 0x0 DUP1 PUSH1 0x0 DUP1 PUSH1 0x0 PUSH1 0xE0 DUP9 DUP11 SUB SLT ISZERO PUSH2 0xE12 JUMPI DUP3 DUP4 REVERT JUMPDEST DUP8 MLOAD PUSH2 0xE1D DUP2 PUSH2 0x1187 JUMP JUMPDEST SWAP7 POP PUSH2 0xE2B PUSH1 0x20 DUP10 ADD PUSH2 0xC51 JUMP JUMPDEST SWAP6 POP PUSH2 0xE39 PUSH1 0x40 DUP10 ADD PUSH2 0xC83 JUMP JUMPDEST SWAP5 POP PUSH2 0xE47 PUSH1 0x60 DUP10 ADD PUSH2 0xC83 JUMP JUMPDEST SWAP4 POP PUSH2 0xE55 PUSH1 0x80 DUP10 ADD PUSH2 0xC83 JUMP JUMPDEST SWAP3 POP PUSH2 0xE63 PUSH1 0xA0 DUP10 ADD PUSH2 0xCA8 JUMP JUMPDEST SWAP2 POP PUSH1 0xC0 DUP9 ADD MLOAD DUP1 ISZERO ISZERO DUP2 EQ PUSH2 0xE77 JUMPI DUP2 DUP3 REVERT JUMPDEST DUP1 SWAP2 POP POP SWAP3 SWAP6 SWAP9 SWAP2 SWAP5 SWAP8 POP SWAP3 SWAP6 POP JUMP JUMPDEST PUSH1 0x0 PUSH1 0x20 DUP3 DUP5 SUB SLT ISZERO PUSH2 0xE98 JUMPI DUP1 DUP2 REVERT JUMPDEST PUSH2 0xCD5 DUP3 PUSH2 0xCA8 JUMP JUMPDEST PUSH1 0x0 DUP1 PUSH1 0x0 DUP1 PUSH1 0x0 DUP1 PUSH1 0x0 DUP1 PUSH1 0x0 DUP1 PUSH1 0x0 DUP1 PUSH2 0x180 DUP14 DUP16 SUB SLT ISZERO PUSH2 0xEC3 JUMPI DUP5 DUP6 REVERT JUMPDEST DUP13 MLOAD PUSH12 0xFFFFFFFFFFFFFFFFFFFFFFFF DUP2 AND DUP2 EQ PUSH2 0xEDE JUMPI DUP6 DUP7 REVERT JUMPDEST SWAP12 POP PUSH2 0xEEC PUSH1 0x20 DUP15 ADD PUSH2 0xC46 JUMP JUMPDEST SWAP11 POP PUSH2 0xEFA PUSH1 0x40 DUP15 ADD PUSH2 0xC46 JUMP JUMPDEST SWAP10 POP PUSH2 0xF08 PUSH1 0x60 DUP15 ADD PUSH2 0xC46 JUMP JUMPDEST SWAP9 POP PUSH2 0xF16 PUSH1 0x80 DUP15 ADD PUSH2 0xC95 JUMP JUMPDEST SWAP8 POP PUSH2 0xF24 PUSH1 0xA0 DUP15 ADD PUSH2 0xC51 JUMP JUMPDEST SWAP7 POP PUSH2 0xF32 PUSH1 0xC0 DUP15 ADD PUSH2 0xC51 JUMP JUMPDEST SWAP6 POP PUSH2 0xF40 PUSH1 0xE0 DUP15 ADD PUSH2 0xC63 JUMP JUMPDEST SWAP5 POP PUSH2 0x100 DUP14 ADD MLOAD SWAP4 POP PUSH2 0x120 DUP14 ADD MLOAD SWAP3 POP PUSH2 0xF5F PUSH2 0x140 DUP15 ADD PUSH2 0xC63 JUMP JUMPDEST SWAP2 POP PUSH2 0xF6E PUSH2 0x160 DUP15 ADD PUSH2 0xC63 JUMP JUMPDEST SWAP1 POP SWAP3 SWAP6 SWAP9 SWAP12 POP SWAP3 SWAP6 SWAP9 SWAP12 POP SWAP3 SWAP6 SWAP9 SWAP12 JUMP JUMPDEST PUSH1 0x1 PUSH1 0x1 PUSH1 0xA0 SHL SUB AND SWAP1 MSTORE JUMP JUMPDEST ISZERO ISZERO SWAP1 MSTORE JUMP JUMPDEST PUSH1 0x2 SIGNEXTEND SWAP1 MSTORE JUMP JUMPDEST PUSH1 0x0 DUP2 MLOAD DUP1 DUP5 MSTORE PUSH2 0xFB2 DUP2 PUSH1 0x20 DUP7 ADD PUSH1 0x20 DUP7 ADD PUSH2 0x1157 JUMP JUMPDEST PUSH1 0x1F ADD PUSH1 0x1F NOT AND SWAP3 SWAP1 SWAP3 ADD PUSH1 0x20 ADD SWAP3 SWAP2 POP POP JUMP JUMPDEST PUSH3 0xFFFFFF AND SWAP1 MSTORE JUMP JUMPDEST PUSH1 0xFF AND SWAP1 MSTORE JUMP JUMPDEST PUSH1 0x1 PUSH1 0x1 PUSH1 0xA0 SHL SUB SWAP2 SWAP1 SWAP2 AND DUP2 MSTORE PUSH1 0x20 ADD SWAP1 JUMP JUMPDEST PUSH1 0x1 PUSH1 0x1 PUSH1 0xA0 SHL SUB SWAP4 DUP5 AND DUP2 MSTORE SWAP2 SWAP1 SWAP3 AND PUSH1 0x20 DUP3 ADD MSTORE PUSH3 0xFFFFFF SWAP1 SWAP2 AND PUSH1 0x40 DUP3 ADD MSTORE PUSH1 0x60 ADD SWAP1 JUMP JUMPDEST SWAP1 ISZERO ISZERO DUP2 MSTORE PUSH1 0x20 ADD SWAP1 JUMP JUMPDEST SWAP1 DUP2 MSTORE PUSH1 0x20 ADD SWAP1 JUMP JUMPDEST PUSH1 0x0 PUSH1 0x20 DUP3 MSTORE PUSH2 0xCD5 PUSH1 0x20 DUP4 ADD DUP5 PUSH2 0xF9A JUMP JUMPDEST PUSH1 0x0 PUSH1 0x20 DUP3 MSTORE DUP3 MLOAD PUSH1 0x20 DUP4 ADD MSTORE PUSH1 0x20 DUP4 ADD MLOAD PUSH2 0x1058 PUSH1 0x40 DUP5 ADD DUP3 PUSH2 0xF80 JUMP JUMPDEST POP PUSH1 0x40 DUP4 ADD MLOAD PUSH2 0x106B PUSH1 0x60 DUP5 ADD DUP3 PUSH2 0xF80 JUMP JUMPDEST POP PUSH1 0x60 DUP4 ADD MLOAD PUSH2 0x1C0 DUP1 PUSH1 0x80 DUP6 ADD MSTORE PUSH2 0x1088 PUSH2 0x1E0 DUP6 ADD DUP4 PUSH2 0xF9A JUMP JUMPDEST SWAP2 POP PUSH1 0x80 DUP6 ADD MLOAD PUSH1 0x1F NOT DUP6 DUP5 SUB ADD PUSH1 0xA0 DUP7 ADD MSTORE PUSH2 0x10A5 DUP4 DUP3 PUSH2 0xF9A JUMP JUMPDEST SWAP3 POP POP PUSH1 0xA0 DUP6 ADD MLOAD PUSH2 0x10BA PUSH1 0xC0 DUP7 ADD DUP3 PUSH2 0xFCF JUMP JUMPDEST POP PUSH1 0xC0 DUP6 ADD MLOAD PUSH2 0x10CD PUSH1 0xE0 DUP7 ADD DUP3 PUSH2 0xFCF JUMP JUMPDEST POP PUSH1 0xE0 DUP6 ADD MLOAD PUSH2 0x100 PUSH2 0x10E2 DUP2 DUP8 ADD DUP4 PUSH2 0xF8D JUMP JUMPDEST DUP7 ADD MLOAD SWAP1 POP PUSH2 0x120 PUSH2 0x10F6 DUP7 DUP3 ADD DUP4 PUSH2 0xF93 JUMP JUMPDEST DUP7 ADD MLOAD SWAP1 POP PUSH2 0x140 PUSH2 0x110A DUP7 DUP3 ADD DUP4 PUSH2 0xF93 JUMP JUMPDEST DUP7 ADD MLOAD SWAP1 POP PUSH2 0x160 PUSH2 0x111E DUP7 DUP3 ADD DUP4 PUSH2 0xF93 JUMP JUMPDEST DUP7 ADD MLOAD SWAP1 POP PUSH2 0x180 PUSH2 0x1132 DUP7 DUP3 ADD DUP4 PUSH2 0xF93 JUMP JUMPDEST DUP7 ADD MLOAD SWAP1 POP PUSH2 0x1A0 PUSH2 0x1146 DUP7 DUP3 ADD DUP4 PUSH2 0xFC6 JUMP JUMPDEST DUP7 ADD MLOAD SWAP1 POP PUSH2 0xC14 DUP6 DUP4 ADD DUP3 PUSH2 0xF80 JUMP JUMPDEST PUSH1 0x0 JUMPDEST DUP4 DUP2 LT ISZERO PUSH2 0x1172 JUMPI DUP2 DUP2 ADD MLOAD DUP4 DUP3 ADD MSTORE PUSH1 0x20 ADD PUSH2 0x115A JUMP JUMPDEST DUP4 DUP2 GT ISZERO PUSH2 0x1181 JUMPI PUSH1 0x0 DUP5 DUP5 ADD MSTORE JUMPDEST POP POP POP POP JUMP JUMPDEST PUSH1 0x1 PUSH1 0x1 PUSH1 0xA0 SHL SUB DUP2 AND DUP2 EQ PUSH2 0x119C JUMPI PUSH1 0x0 DUP1 REVERT JUMPDEST POP JUMP INVALID LOG2 PUSH5 0x6970667358 0x22 SLT KECCAK256 SWAP3 PUSH14 0x92848C4CDBF9BF23720403E2C35E PUSH30 0x9FBAFD13A7CED5248F9F241D092AA764736F6C6343000706003300000000 "
		},
		"gasEstimates": {
			"creation": {
				"codeDepositCost": "913000",
				"executionCost": "infinite",
				"totalCost": "infinite"
			},
			"external": {
				"WETH9()": "infinite",
				"flipRatio(address,address,uint256)": "infinite",
				"tokenRatioPriority(address,uint256)": "infinite",
				"tokenURI(address,uint256)": "infinite"
			}
		},
		"methodIdentifiers": {
			"WETH9()": "4aa4a4fc",
			"flipRatio(address,address,uint256)": "7e5af771",
			"tokenRatioPriority(address,uint256)": "9d7b0ea8",
			"tokenURI(address,uint256)": "e9dc6375"
		}
	},
	"abi": [
		{
			"inputs": [
				{
					"internalType": "address",
					"name": "_WETH9",
					"type": "address"
				}
			],
			"stateMutability": "nonpayable",
			"type": "constructor"
		},
		{
			"anonymous": false,
			"inputs": [
				{
					"indexed": false,
					"internalType": "address",
					"name": "token",
					"type": "address"
				},
				{
					"indexed": false,
					"internalType": "int256",
					"name": "priority",
					"type": "int256"
				}
			],
			"name": "UpdateTokenRatioPriority",
			"type": "event"
		},
		{
			"inputs": [],
			"name": "WETH9",
			"outputs": [
				{
					"internalType": "address",
					"name": "",
					"type": "address"
				}
			],
			"stateMutability": "view",
			"type": "function"
		},
		{
			"inputs": [
				{
					"internalType": "address",
					"name": "token0",
					"type": "address"
				},
				{
					"internalType": "address",
					"name": "token1",
					"type": "address"
				},
				{
					"internalType": "uint256",
					"name": "chainId",
					"type": "uint256"
				}
			],
			"name": "flipRatio",
			"outputs": [
				{
					"internalType": "bool",
					"name": "",
					"type": "bool"
				}
			],
			"stateMutability": "view",
			"type": "function"
		},
		{
			"inputs": [
				{
					"internalType": "address",
					"name": "token",
					"type": "address"
				},
				{
					"internalType": "uint256",
					"name": "chainId",
					"type": "uint256"
				}
			],
			"name": "tokenRatioPriority",
			"outputs": [
				{
					"internalType": "int256",
					"name": "",
					"type": "int256"
				}
			],
			"stateMutability": "view",
			"type": "function"
		},
		{
			"inputs": [
				{
					"internalType": "contract INonfungiblePositionManager",
					"name": "positionManager",
					"type": "address"
				},
				{
					"internalType": "uint256",
					"name": "tokenId",
					"type": "uint256"
				}
			],
			"name": "tokenURI",
			"outputs": [
				{
					"internalType": "string",
					"name": "",
					"type": "string"
				}
			],
			"stateMutability": "view",
			"type": "function"
		}
	]
}